S0120000416374697669646164342E7372656355
S11300000C943B000C9458000C9458000C94580029
S11300100C9458000C9458000C9458000C945800FC
S11300200C9458000C9458000C9458000C945800EC
S11300300C9458000C9458000C94BF030C94580072
S11300400C9458000C9458000C9415040C9458000B
S11300500C9458000C9458000C9458000C945800BC
S11300600C9458000C945800870590059D05AA052A
S1130070B705C205CF0511241FBECFEFD8E0DEBF00
S1130080CDBF11E0A0E0B1E0E2E0FFE002C00590E6
S11300900D92A030B107D9F723E0A0E0B1E001C090
S11300A01D92A430B207E1F70E94D0040C947F079C
S11300B00C94000090E027E1289FF001299FF00DA7
S11300C01124E35FFE4F26892431B8F427E1289FE9
S11300D0F001299FF00D1124E35FFE4F858990E024
S11300E0DF01A80FB91F6C93019664E170E00E94D0
S11300F02007858B86898F5F868B089590E027E1A2
S1130100289FF001299FF00D1124E35FFE4F2689FB
S11301102223C9F027E1289FF001299FF00D112423
S1130120E35FFE4F848990E0DF01A80FB91F2C9193
S1130130019664E170E00E942007848B86898150D7
S1130140868B822F08958FEF0895909306018093F4
S11301500501089520E022C0822F90E037E1389F06
S1130160F001399FF00D1124E35FFE4F148A158AC4
S1130170168AFC01EE0FFF1FEE0FFF1FE056FE4F25
S113018010821182FC01EE5AFE4F1082880F991FD3
S1130190FC01E95FFE4F108211822F5F2330E0F2F1
S11301A0089580E020C0282F30E0F901EE0FFF1FF2
S11301B0EE0FFF1FE056FE4F9081992399F0F9014D
S11301C0EE0FFF1FEE0FFF1FE056FE4F91819923A4
S11301D049F0220F331F220F331FF901E056FE4F5F
S11301E0915091838F5F8330F0F20895EF92FF92E4
S11301F01F93CF93DF9300D0CDB7DEB710E04BC091
S1130200E12EF12CF701EE0FFF1FEE0FFF1FE0565A
S1130210FE4F8081882351F0F701EE0FFF1FEE0F90
S1130220FF1FE056FE4F9181911134C0882391F154
S1130230F701EE0FFF1FEE0FFF1FE056FE4F818107
S1130240811128C0F701EE0FFF1FEE0FFF1FE056CC
S1130250FE4F82818130F1F4E0910501F0910601B5
S1130260309769F00E2C01C0880F0A94EAF789834D
S11302701A8242E0BE016F5F7F4F82E50995F70164
S1130280EE0FFF1FEE0FFF1FE056FE4F82E082834A
S11302908DE781831F5F133008F4B2CF0F900F9066
S11302A0DF91CF911F91FF90EF900895BF92CF926D
S11302B0DF92EF92FF920F931F93CF93DF9300D0BF
S11302C0CDB7DEB7833509F4DAC0E42E8B0184356B
S11302D040F4813509F44FC008F066C0803599F0C8
S11302E095C18F3509F44CC1803F21F08E3509F05A
S11302F08DC141C1DB018C918D3009F087C181E052
S11303008093040183C1B3E0B41708F07FC1E2E530
S1130310F1E0DB0111968C911197808312968C91F8
S11303201297818313968C91828320E01FC0822FC1
S113033090E037E1389FF001399FF00D1124E35F1D
S1130340FE4F148A158A168AFC01EE0FFF1FEE0F6A
S1130350FF1FE056FE4F1082118212821382880F13
S1130360991FFC01E95FFE4F10822F5F2330F8F2E2
S113037010929F014BC1FB0180818D3009F046C171
S113038081E080939F0180E00CC0E82FF0E0EE0F45
S1130390FF1FEE0FFF1FE056FE4F108211821282E4
S11303A08F5F833090F332C1DB018C918F3F09F072
S11303B02DC160C0E12EF12CF701EE0FFF1FEE0FEF
S11303C0FF1FE056FE4F8281823009F051C0F701D1
S11303D0EE0FFF1FEE0FFF1FE056FE4F128210823A
S11303E01182F701EE0FFF1FE95FFE4F8081882322
S11303F009F40CC1F701EE0FFF1FE95FFE4F1082F5
S1130400812F0E947E008F3F09F400C1282F082EFF
S1130410000C330BE216F30611F5E0910501F0919F
S11304200601309779F081E090E002C0880F991FAF
S11304301A95E2F789838A8342E0BE016F5F7F4F9A
S113044082E50995F701EE0FFF1FEE0FFF1FE0563F
S1130450FE4F81E080839DE791838283D7C0123071
S113046008F0D4C0682F81E0810F0E945A00CEC0EA
S11304701F5F01C010E0133008F49CCFC7C0FB011C
S113048080818D3019F410929F01C0C08A3009F028
S1130490BDC082E080939F01B9C08F2D90E0F80128
S11304A0E80FF91FB0800196F801E80FF91F808169
S11304B0813009F05DC0CB2CD12CF601EE0FFF1F6B
S11304C0EE0FFF1FE056FE4F8281811149C08B2D34
S11304D00E947E008F3F49F4F601EE0FFF1FE95F93
S11304E0FE4F81E08083B18243C0282F082E000C88
S11304F0330BC216D30659F5809100019091010186
S113050001969093010180930001E0910501F0911F
S11305100601309779F081E090E002C0880F991FBE
S1130520BA94E2F789838A8342E0BE016F5F7F4F0A
S113053082E50995F601EE0FFF1FEE0FFF1FE0564F
S1130540FE4F81E080839DE79183828311C0F1E0B7
S1130550FB1570F0682F81E08B0D0E945A0008C0D3
S1130560F601EE0FFF1FE95FFE4F81E08083B18249
S1130570F394F39401C0F12CFE1408F48ECF46C01A
S1130580809102019091030101969093030180935D
S1130590020160E039C0D8019C91E62FF0E0EE5AE8
S11305A0FE4F808198132FC080E00E945A008091F2
S11305B00701882359F18091A201811127C010926B
S11305C007010E947E00811117C0E0910501F0919E
S11305D00601309749F081E089838A8342E0BE01B5
S11305E06F5F7F4F82E50995E0EAF1E081E0808367
S11305F09DE7918382830AC08F3F41F0682F81E099
S11306000E945A0003C06F5F633028F20F900F906E
S1130610DF91CF911F910F91FF90EF90DF90CF90DA
S1130620BF900895DC0111967C936E9313965C93AE
S11306304E93129715963C932E93149716961C92EC
S1130640169717961D921D921D921C921A971B962F
S11306501D921D921D921C921E976115710519F031
S1130660FB0180E009950895CF93DF93EC01798332
S113067068835B834A833D832C836115710519F07C
S1130680FB01099501C080E08E83DF91CF9108952D
S11306901F93CF93DF93DC01ED91FC913097C9F068
S11306A0EC010995182F882349F08E81811106C029
S11306B0EA81FB81309761F009950AC0111108C0E5
S11306C08E81882329F0EC81FD81309709F009950A
S11306D01E83DF91CF911F91089508950895089581
S11306E0089508950895882321F08BB180688BB90B
S11306F008958BB18F778BB90895882321F085B144
S1130700806185B9089585B18F7E85B90895882360
S113071021F085B1886085B9089585B1877F85B951
S1130720089589B182958695877091E089278170B3
S1130730089589B18695869591E0892781700895F9
S113074089B186958695869591E08927817008956B
S113075089B182958F7091E08927817008958823EB
S113076021F085B1826085B9089585B18D7F85B901
S1130770089593B1892F847092FD81E008951F92AA
S11307800F920FB60F9211242F933F934F935F93C1
S11307906F937F938F939F93AF93BF93EF93FF9345
S11307A048EC50E060E070E083ED91E00E94D206F6
S11307B048EC50E060E070E08BEE91E00E94D206DD
S11307C048EC50E060E070E082EC91E00E94D206D8
S11307D08DED91E00E9448038CEA91E00E94480369
S11307E08CEC91E00E94480384EE91E00E9448035F
S11307F0809155018F5F809355018A3028F01092C3
S113080055018EB381608EBBFF91EF91BF91AF9183
S11308109F918F917F916F915F914F913F912F9114
S11308200F900FBE0F901F9018951F920F920FB646
S11308300F9211248F939F93AF93BF93EF93FF93E2
S1130840E5EFF1E0A081B181828191E0980F92837C
S1130850A80FB11D8091C6008C9392818481815030
S113086089238283FF91EF91BF91AF919F918F91E3
S11308700F900FBE0F901F901895CF93DF931F9288
S1130880CDB7DEB78EB38E7F8EBB80919F01882358
S113089019F0813071F010C080915B018150809318
S11308A05B01811109C084E680935B0180E283B916
S11308B003C085B1806285B98091590190915A0134
S11308C0019690935A0180935901843C994060F0B9
S11308D010925A0110925901198240E0BE016F5FD3
S11308E07F4F80EF0E94FF0580915701909158013E
S11308F001969093580180935701843F914018F1D9
S1130900109258011092570180915601811109C02B
S113091060E083ED91E00E94B30681E0809356018C
S113092012C0813049F46AE583ED91E00E94B30678
S113093082E08093560107C064EB83ED91E00E944E
S1130940B306109256010E94F6000E94D1000F9047
S1130950DF91CF91089584B18A6384B984B18B7F88
S113096084B98AB180688AB98AB1837C8AB98BB127
S11309708C638BB9089582E084BD91E397BD809325
S11309806E0083E085BD08951092C50087E68093CC
S1130990C40086E08093C20088E98093C100089572
S11309A0F8940E9450050E94AA0086E591E00E94F6
S11309B065058FEF95E00E94A5000E94C4040E9483
S11309C0AB040E94BB042DE633E049EB53E06FEA2D
S11309D073E083EB91E00E9412032EE633E04FE6CE
S11309E053E061E973E08DED91E00E94340320E06F
S11309F030E040E753E069E973E08CEA91E00E945B
S1130A00340320E030E041E753E060EA73E08CEC2B
S1130A1091E00E94340320E030E042E753E068EACA
S1130A2073E084EE91E00E94340363E773E083EDA6
S1130A3091E00E949D066DE773E08BEE91E00E94C9
S1130A409D0667E873E082EC91E00E949D0678942D
S1130A5084E680935B01F0990E943D04E5EFF1E0A8
S1130A609381828198130E946A05EEE7F2E09281F5
S1130A708381981781F38091C00085FFECCFA0811A
S1130A80B181838191E0980F9383A80FB11D8C915C
S1130A908093C60093818481815089238383DBCF33
S1130AA0E5EFF1E084E892E09183808380E8848339
S1130AB0138212821682EEE7F2E02EEF31E03183E8
S1130AC02083848313821282089590935D0180931E
S1130AD05C0108958DC0E5EFF1E0A081B1818381CF
S1130AE091E0980F9383A80FB11D2C919381848179
S1130AF0815089238383E6818E2F90E0873091058E
S1130B0008F076C0FC01EC5CFF4F0C9456072535C9
S1130B1009F06EC0E5EFF1E081E08683208768C0CC
S1130B202E3441F4E5EFF1E082E0868380852827C6
S1130B3020875EC01092FB015BC0253441F4E5EFD1
S1130B40F1E083E0868380852827208751C01092B6
S1130B50FB014EC0223541F4E5EFF1E084E08683E9
S1130B6080852827208744C01092FB0141C0E5EF0F
S1130B70F1E0278380852827208785E086831092EB
S1130B805E0136C02A3341F4E5EFF1E08085282781
S1130B90208786E086832CC01092FB0129C0E5EFF4
S1130BA0F1E09085922790878781823050F0E09120
S1130BB05E0131E03E0F30935E01F0E0E15AFE4FFA
S1130BC0208381508093FC01811112C091110EC0C9
S1130BD0E0915C01F0915D01309741F040915E013C
S1130BE0415060E671E080915F0109951092FB012C
S1130BF0E5EFF1E09381828198136DCF0895CF934F
S1130C00DF9352E0540FEEE7F2E0A081B1819281CC
S1130C1021E0290F2283A90FB11D95E59C93228120
S1130C209481915092239283A081B181928121E099
S1130C30290F2283A90FB11D9EE49C9322819481E4
S1130C40915092239283A081B181928121E0290F56
S1130C502283A90FB11D95E49C9322819481915024
S1130C6092239283A081B181928121E0290F228372
S1130C70A90FB11D92E59C93328124812150232335
S1130C802283A081B181928121E0290F2283A90FBF
S1130C90B11D5C9332812481215023232283A081BE
S1130CA0B181928121E0290F2283A90FB11D9AE31A
S1130CB09C933281248121502323228396E3952718
S1130CC0A081B181228131E0320F3283A20FB11DA4
S1130CD08C9332812481215023232283892790E01D
S1130CE017C0EEE7F2E0A081B181228131E0320F3A
S1130CF03283A20FB11DEB01C90FD11D28812C93A2
S1130D0032812481215023232283288182279F5FDB
S1130D10941738F3EEE7F2E0A081B181928121E0EB
S1130D20290F2283A90FB11D8C9392818481815054
S1130D3089238283DF91CF910895FC0171836083BD
S1130D4080EC95E0A0E0B0E082839383A483B58334
S1130D5016821782108611866115710519F0FB0140
S1130D6080E009950895CF93DF93EC01653B08F08B
S1130D7064EB262F30E0A0E4B7E00E945C0724EB8C
S1130D8030E040E050E00E943407DA01C901805E9F
S1130D909D4FAF4FBF4F8A839B83AC83BD83DF914D
S1130DA0CF9108950F931F93CF93DF93DC01ED91BF
S1130DB0FC91309709F43FC0EC018E819F81A88596
S1130DC0B985480F591F6A1F7B1F4E835F8368874D
S1130DD0798740322EE4520761057105E0F04052F4
S1130DE05E44610971094E835F836887798781E076
S1130DF009954E815F81688579858A819B81AC8163
S1130E00BD81481759076A077B07A8F0E881F98173
S1130E1080E0099510C00A811B812C813D818017D7
S1130E209107A207B30738F4401751076207730705
S1130E3010F080E00995DF91CF911F910F910895F3
S1130E4097FB072E16F4009407D077FD09D00E9473
S1130E506B0707FC05D03EF4909581959F4F08954C
S1130E60709561957F4F0895A1E21A2EAA1BBB1BB2
S1130E70FD010DC0AA1FBB1FEE1FFF1FA217B30762
S1130E80E407F50720F0A21BB30BE40BF50B661F78
S1130E90771F881F991F1A9469F76095709580953C
S1130EA090959B01AC01BD01CF010895EE0FFF1F8A
S1130EB00590F491E02D0994A29FB001B39FC00165
S1130EC0A39F700D811D1124911DB29F700D811D72
S1130ED01124911D0895AA1BBB1B51E107C0AA1F31
S1130EE0BB1FA617B70710F0A61BB70B881F991FC7
S1130EF05A95A9F780959095BC01CD010895F89471
S1050F00FFCF1D
S9030000FC
