S0120000416374697669646164342E7372656355
S11300000C943B000C9458000C9458000C94580029
S11300100C9458000C9458000C9458000C945800FC
S11300200C9458000C9458000C9458000C945106ED
S11300300C9458000C9458000C940B060C94580023
S11300400C9458000C9458000C948B060C94580093
S11300500C9458000C9458000C9458000C945800BC
S11300600C9458000C945800580861086E087B08DA
S113007088089308A00811241FBECFEFD8E0DEBF84
S1130080CDBF11E0A0E0B1E0E0E6F7E102C00590E9
S11300900D92A030B107D9F723E0A0E0B1E001C090
S11300A01D92AD31B207E1F70E9484070C94AE0BA8
S11300B00C94000090E027E1289FF001299FF00DA7
S11300C01124EC5EFE4F26892431B8F427E1289FE1
S11300D0F001299FF00D1124EC5EFE4F858990E01C
S11300E0DF01A80FB91F6C93019664E170E00E94D0
S11300F0440B858B86898F5F868B089590E027E17A
S1130100289FF001299FF00D1124EC5EFE4F2689F3
S11301102223C9F027E1289FF001299FF00D112423
S1130120EC5EFE4F848990E0DF01A80FB91F2C918B
S1130130019664E170E00E94440B848B86898150AF
S1130140868B822F08958FEF0895909307018093F3
S11301500601089590930D0180930C0108959093E6
S11301600B0180930A01089590930901809308017B
S1130170089520E022C0822F90E037E1389FF001FB
S1130180399FF00D1124EC5EFE4F148A158A168AED
S1130190FC01EE0FFF1FEE0FFF1FE155FE4F108213
S11301A01182FC01E75AFE4F1082880F991FFC014F
S11301B0E25FFE4F108211822F5F2330E0F2089538
S11301C080E020C0282F30E0F901EE0FFF1FEE0F72
S11301D0FF1FE155FE4F9081992399F0F901EE0F2D
S11301E0FF1FEE0FFF1FE155FE4F9181992349F048
S11301F0220F331F220F331FF901E155FE4F915097
S113020091838F5F8330F0F20895EF92FF921F93F2
S1130210CF93DF9300D0CDB7DEB710E04BC0E12E13
S1130220F12CF701EE0FFF1FEE0FFF1FE155FE4FFC
S11302308081882351F0F701EE0FFF1FEE0FFF1F9F
S1130240E155FE4F9181911134C0882391F1F7015A
S1130250EE0FFF1FEE0FFF1FE155FE4F818181114D
S113026028C0F701EE0FFF1FEE0FFF1FE155FE4FF1
S113027082818130F1F4E0910C01F0910D0130970D
S113028069F00E2C01C0880F0A94EAF789831A8258
S113029042E0BE016F5F7F4F82E50995F701EE0FE3
S11302A0FF1FEE0FFF1FE155FE4F82E082838DE7B3
S11302B081831F5F133008F4B2CF0F900F90DF914A
S11302C0CF911F91FF90EF900895BF92CF92DF924C
S11302D0EF92FF920F931F93CF93DF9300D0CDB78C
S11302E0DEB77B01042F8E3509F46CC170F48135BF
S11302F009F461C018F48035F9F0C6C1823509F4F7
S11303007BC0833509F4E3C0BFC1813609F4A7C1BA
S113031020F48F3509F45BC1B7C1823609F4A7C153
S1130320803F09F0B1C1DB018C918D3009F0ACC183
S113033081E080930401A8C1443098F1E9E5F1E03B
S1130340DB0111968C911197808312968C911297F0
S1130350818313968C91828320E01FC0822F90E0CA
S113036037E1389FF001399FF00D1124EC5EFE4F08
S1130370148A158A168AFC01EE0FFF1FEE0FFF1F69
S1130380E155FE4F1082118212821382880F991F49
S1130390FC01E25FFE4F10822F5F2330F8F21092CF
S11303A0AE01E0910601F0910701309709F46CC1A8
S11303B081E0099569C1FB0180818D3099F481E068
S11303C08093AE0180E00CC0E82FF0E0EE0FFF1F39
S11303D0EE0FFF1FE155FE4F1082118212828F5FD4
S11303E0833090F3E0910601F0910701309709F40E
S11303F04BC180E0099548C1DB018C918F3F09F026
S113040043C160C0E12EF12CF701EE0FFF1FEE0F88
S1130410FF1FE155FE4F8281823009F051C0F70180
S1130420EE0FFF1FEE0FFF1FE155FE4F12821082E9
S11304301182F701EE0FFF1FE25FFE4F80818823D8
S113044009F422C1F701EE0FFF1FE25FFE4F108295
S1130450812F0E947E008F3F09F416C1282F082E99
S1130460000C330BE216F30611F5E0910C01F09148
S11304700D01309779F081E090E002C0880F991F58
S11304801A95E2F789838A8342E0BE016F5F7F4F4A
S113049082E50995F701EE0FFF1FEE0FFF1FE155EF
S11304A0FE4F81E080839DE791838283EDC012300B
S11304B008F0EAC0682F81E0810F0E945A00E4C06E
S11304C01F5F01C010E0133008F49CCFDDC0FB01B6
S11304D080818D3019F41092AE01D6C08A3009F0B3
S11304E0D3C082E08093AE01CFC0812F90E0F701AA
S11304F0E80FF91FB0800196F701E80FF91F80811A
S1130500813009F05DC0CB2CD12CF601EE0FFF1F1A
S1130510EE0FFF1FE155FE4F8281811149C08B2DE3
S11305200E947E008F3F49F4F601EE0FFF1FE25F49
S1130530FE4F81E08083B18243C0282F082E000C37
S1130540330BC216D30659F5809100019091010135
S113055001969093010180930001E0910C01F091C8
S11305600D01309779F081E090E002C0880F991F67
S1130570BA94E2F789838A8342E0BE016F5F7F4FBA
S113058082E50995F601EE0FFF1FEE0FFF1FE155FF
S1130590FE4F81E080839DE79183828311C0F1E067
S11305A0FB1570F0682F81E08B0D0E945A0008C083
S11305B0F601EE0FFF1FE25FFE4F81E08083B18200
S11305C01E5F01C010E0101708F48FCF5DC080914A
S11305D0020190910301019690930301809302011B
S11305E060E03AC0D7019C91E62FF0E0E75AFE4F55
S11305F08081981330C080E00E945A0080910E01DF
S1130600882309F441C08091B10181113DC0109249
S11306100E010E947E00811117C0E0910C01F0913F
S11306200D01309749F081E089838A8342E0BE015D
S11306306F5F7F4F82E50995EFEAF1E081E0808307
S11306409DE79183828320C08F3FF1F0682F81E082
S11306500E945A0019C06F5F633020F215C0E09108
S11306600A01F0910B01309779F009950DC0FB0157
S1130670808180930501E0910801F0910901309790
S113068019F0DB018C9109950F900F90DF91CF91B8
S11306901F910F91FF90EF90DF90CF90BF9008953E
S11306A0DC0111967C936E9313965C934E93129790
S11306B015963C932E93149716961C92169717969C
S11306C01D921D921D921C921A971B961D921D92AB
S11306D01D921C921E976115710519F0FB0180E0B3
S11306E009950895CF92DF92EF92FF92CF93DF9313
S11306F0FC01268121110EC06A017B01EC010190ED
S1130700F081E02D81E00995CF82D886E986FA86CA
S113071081E08E83DF91CF91FF90EF90DF90CF90B7
S113072008958F929F92AF92BF92CF92DF92EF92F1
S1130730FF92CF93DF93EC016A017B018F8198854F
S1130740A985BA854A015B01881A990AAA0ABB0AD3
S11307508E81813039F008F476C08230A9F083307C
S113076099F16CC02AE082169104A104B10408F442
S11307706AC0E881F98180E00995CF82D886E9864C
S1130780FA8682E08E835FC0EA81FB810995882323
S113079039F0CB86DC86ED86FE8683E08E8353C0FB
S11307A030E3831635E79306A104B10408F44BC083
S11307B01E82EC81FD81309709F445C060E070E051
S11307C080E89FEB09953FC0EA81FB81099581117F
S11307D01BC08B859C85AD85BE85A7019601281B12
S11307E0390B4A0B5B0BCA01B9010E94250A28E2A6
S11307F03EE74CE85CE30E94AF0A1E82EC81FD8177
S1130800309709F109951FC08B859C85AD85BE8500
S1130810C81AD90AEA0AFB0A30E3C31635E7D30635
S1130820E104F10480F01E82EC81FD81309759F0DF
S113083060E070E080E89FEB099505C0E881F981EC
S113084080E009951E82DF91CF91FF90EF90DF90B9
S1130850CF90BF90AF909F908F900895FC018681B8
S1130860882311F081E0089580E00895CF93DF9309
S1130870EC01798368835B834A833D832C83611510
S1130880710519F0FB01099501C080E08E83DF91A9
S1130890CF910895CF93DF93DC01ED91FC913097D4
S11308A0D9F0EC0109959E81891302C01F8214C0FE
S11308B09F819F5F9F83923378F01F828E8388236A
S11308C031F0EA81FB81309739F0099505C0EC815C
S11308D0FD81309709F00995DF91CF910895882320
S11308E021F08BB180688BB908958BB18F778BB968
S11308F00895882321F085B1806185B9089585B173
S11309008F7E85B90895882321F085B1886085B9E3
S1130910089585B1877F85B9089589B182958695B3
S1130920877091E089278170089589B186958695AD
S113093091E089278170089589B186958695869579
S113094091E089278170089589B182958F7091E033
S1130950892781700895882321F085B1826085B943
S1130960089585B18D7F85B9089593B1892F8470D9
S113097092FD81E0089580935F0181E0809360019E
S11309800895882321F088B18E7F88B9089588B1AD
S1130990816088B90895CF92DF92EF92FF926B0144
S11309A07C0120E030E040E251E40E94F109882318
S11309B084F485B1816085B9C701B6010E94F60946
S11309C06093020241E062E072E08FE50E94D00889
S11309D003C085B18E7F85B9C701B6010E94F609AF
S11309E06093020241E062E072E08FE50E94D00869
S11309F041E062E072E081E60E94D008FF90EF904F
S1130A00DF90CF90089580916001882381F08091D8
S1130A10D2019091D301A091D401B091D5018093DA
S1130A20610190936201A0936301B09364018BB15F
S1130A3080648BB9E2E0F2E0108281E0818342E0DD
S1130A40BF018EE50E94D0080895CF92DF92EF9205
S1130A50FF92CF93DF931F92CDB7DEB780916001F1
S1130A60882389F1C090D201D090D301E090D401C1
S1130A70F090D5018091610190916201A091630190
S1130A80B0916401C81AD90AEA0AFB0AA0915F016D
S1130A90B0E020E432E44FE050E00E948F0BA70165
S1130AA096010E94580B2F3F310519F010F02FEFDB
S1130AB030E0298341E0BE016F5F7F4F82E60E94F0
S1130AC0D008109260018BB18F7B8BB9E2E0F2E029
S1130AD01082118242E0BF018EE50E94D0080F907F
S1130AE0DF91CF91FF90EF90DF90CF9008954091E8
S1130AF0D2015091D3016091D4017091D50183EC5E
S1130B0091E00E9472030895CF93DF9360E088EE32
S1130B1091E00E948409C2E0D2E081E08883898365
S1130B2042E0BE018EE50E94D0081882198242E09C
S1130B30BE0182E50E94D008DF91CF9108956AE555
S1130B4088EE91E00E948409E2E0F2E081E0808393
S1130B50118242E0BF018EE50E94D00808951F93E0
S1130B60CF93DF9360E086ED91E00E948409C2E0B8
S1130B70D2E082E0888311E0198342E0BE018EE571
S1130B800E94D0081883198242E0BE0182E50E94C7
S1130B90D008DF91CF911F9108956AE586ED91E029
S1130BA00E948409E2E0F2E082E08083118242E064
S1130BB0BF018EE50E94D00808951F93CF93DF9361
S1130BC060E084E092E00E948409C2E0D2E083E025
S1130BD0888311E0198342E0BE018EE50E94D008AB
S1130BE01883198242E0BE0182E50E94D008DF9199
S1130BF0CF911F9108956AE584E092E00E948409F0
S1130C00E2E0F2E083E08083118242E0BF018EE5FE
S1130C100E94D00808951F920F920FB60F921124CC
S1130C202F933F934F935F936F937F938F939F93F0
S1130C30AF93BF93EF93FF9348EC50E060E070E014
S1130C4088EE91E00E94A30948EC50E060E070E077
S1130C5084E092E00E94A30948EC50E060E070E078
S1130C6086ED91E00E94A30980915C018F5F8093DF
S1130C705C018A3028F010925C018EB381608EBBD7
S1130C80FF91EF91BF91AF919F918F917F916F9160
S1130C905F914F913F912F910F900FBE0F901F9036
S1130CA018951F920F920FB60F9211242F933F9312
S1130CB04F935F936F937F938F939F93AF93BF9360
S1130CC0EF93FF934091D2015091D3016091D401ED
S1130CD07091D501405D5F4F6F4F7F4F4093D201BC
S1130CE05093D3016093D4017093D50183EC91E0C8
S1130CF00E949103FF91EF91BF91AF919F918F91CA
S1130D007F916F915F914F913F912F910F900FBE03
S1130D100F901F9018951F920F920FB60F921124E7
S1130D208F939F93AF93BF93EF93FF93EEE0F2E023
S1130D30A081B181828191E0980F9283A80FB11DA7
S1130D408091C6008C93928184818150892382830F
S1130D50FF91EF91BF91AF919F918F910F900FBE33
S1130D600F901F901895CF93DF931F92CDB7DEB7E6
S1130D708EB38E7F8EBB8091AE01882319F08130B3
S1130D8071F010C080916A01815080936A018111D1
S1130D9009C084E680936A0180E283B903C085B107
S1130DA0806285B982EF91E00E944A048BEB91E066
S1130DB00E944A0480EE91E00E944A048AEF91E086
S1130DC00E944A0480916801909169010196909370
S1130DD0690180936801843C994060F01092690134
S1130DE010926801198240E0BE016F5F7F4F80EF6F
S1130DF00E94D008809166019091670101969093BA
S1130E00670180936601843F9140A0F010926701CE
S1130E101092660180916501811104C081E0809384
S1130E20650108C0813021F482E08093650102C02D
S1130E301092650180915D0190915E0101969093FD
S1130E405E0180935D018C3D9540B0F010925E018F
S1130E5010925D0183EC91E00E942E0481110CC07C
S1130E604091D2015091D3016091D4017091D50188
S1130E7083EC91E00E9472030E9405010E94E0004D
S1130E800F90DF91CF91089584B18A6384B984B1BE
S1130E908B7F84B98AB180688AB98AB180648AB93F
S1130EA084B1816084B98AB1837C8AB98BB18C6343
S1130EB08BB987B1816087B988B1816088B9089599
S1130EC082E084BD91E397BD80936E0083E085BD8D
S1130ED00895109280008AE0809381008FE590E06D
S1130EE0909389008093880082E080936F00089536
S1130EF01092C50087E68093C40086E08093C20008
S1130F0088E98093C1000895F8940E9421080E9402
S1130F10B90085E691E00E94360887E795E00E94D3
S1130F20AF0080ED98E00E94AA008BEB94E00E9451
S1130F30B40081EC94E00E94A5000E9478070E940E
S1130F4044070E9460070E9469072BEC34E045EBDC
S1130F5054E06BEA74E083EC91E00E94500325E2D4
S1130F6035E043E055E06DE874E082EF91E00E94E3
S1130F7036042FE935E044E855E065E974E08BEB8D
S1130F8091E00E9436042DEC35E04FEA55E06CE91F
S1130F9074E080EE91E00E9436042BEF35E04DEDD5
S1130FA055E064EA74E08AEF91E00E9436046FE64B
S1130FB074E088EE91E00E946E0969E774E084E0D1
S1130FC092E00E946E0963E874E086ED91E00E946D
S1130FD06E0978946AE588EE91E00E9484096AE5D6
S1130FE084E092E00E9484096AE586ED91E00E9423
S1130FF0840984E680936A01F0990E94B306EEE0C6
S1131000F2E09381828198130E943B08E7E9F2E0C1
S113101092818381981781F38091C00085FFECCF82
S1131020A081B181838191E0980F9383A80FB11DB2
S11310308C918093C600938184818150892383831A
S1131040DBCFEEE0F2E08DE992E09183808380E8EB
S11310508483138212821682E7E9F2E027E132E008
S113106031832083848313821282089590936C01C8
S113107080936B0108958DC0EEE0F2E0A081B18110
S1131080838191E0980F9383A80FB11D2C919381D4
S11310908481815089238383E6818E2F90E0873079
S11310A0910508F076C0FC01EC5CFF4F0C947A0BC0
S11310B0253509F06EC0EEE0F2E081E086832087FA
S11310C068C02E3441F4EEE0F2E082E0868380854D
S11310D0282720875EC0109214025BC0253441F497
S11310E0EEE0F2E083E0868380852827208751C0E4
S11310F0109214024EC0223541F4EEE0F2E084E096
S1131100868380852827208744C01092140241C01A
S1131110EEE0F2E0278380852827208785E0868318
S113112010926D0136C02A3341F4EEE0F2E080857E
S11311302827208786E086832CC01092140229C0B9
S1131140EEE0F2E09085922790878781823050F01C
S1131150E0916D0131E03E0F30936D01F0E0E25912
S1131160FE4F2083815080931502811112C091118A
S11311700EC0E0916B01F0916C01309741F0409109
S11311806D0141506FE671E080916E0109951092F6
S11311901402EEE0F2E09381828198136DCF0895FA
S11311A0CF93DF9352E0540FE7E9F2E0A081B181DD
S11311B0928121E0290F2283A90FB11D95E59C930B
S11311C022819481915092239283A081B181928152
S11311D021E0290F2283A90FB11D9EE49C93228153
S11311E09481915092239283A081B181928121E0D4
S11311F0290F2283A90FB11D95E49C932281948128
S1131200915092239283A081B181928121E0290F90
S11312102283A90FB11D92E59C9332812481215030
S113122023232283A081B181928121E0290F22838B
S1131230A90FB11D5C933281248121502323228381
S1131240A081B181928121E0290F2283A90FB11DD0
S11312509AE39C933281248121502323228396E3B1
S11312609527A081B181228131E0320F3283A20F10
S1131270B11D8C9332812481215023232283892719
S113128090E017C0E7E9F2E0A081B181228131E06A
S1131290320F3283A20FB11DEB01C90FD11D28817A
S11312A02C93328124812150232322832881822775
S11312B09F5F941738F3E7E9F2E0A081B18192814E
S11312C021E0290F2283A90FB11D8C93928184817F
S11312D0815089238283DF91CF910895FC0171832A
S11312E0608380EC95E0A0E0B0E082839383A483E4
S11312F0B58316821782108611866115710519F05F
S1131300FB0180E009950895CF93DF93EC01653BE1
S113131008F064EB262F30E0A0E4B7E00E94800BD5
S113132024EB30E040E050E00E94580BDA01C901A0
S1131330805E9D4FAF4FBF4F8A839B83AC83BD8339
S1131340DF91CF9108950F931F93CF93DF93DC0127
S1131350ED91FC91309709F43FC0EC018E819F819F
S1131360A885B985480F591F6A1F7B1F4E835F8369
S11313706887798740322EE4520761057105E0F0F1
S113138040525E44610971094E835F83688779879F
S113139081E009954E815F81688579858A819B8189
S11313A0AC81BD81481759076A077B07A8F0E8811B
S11313B0F98180E0099510C00A811B812C813D814F
S11313C080179107A207B30738F440175107620743
S11313D0730710F080E00995DF91CF911F910F9171
S11313E008950E94620A08F481E008950E948E0A1A
S11313F088F09F5798F0B92F9927B751B0F0E1F0D2
S1131400660F771F881F991F1AF0BA95C9F714C081
S1131410B13091F00E94A80AB1E008950C94A80A92
S1131420672F782F8827B85F39F0B93FCCF38695BA
S113143077956795B395D9F73EF490958095709517
S113144061957F4F8F4F9F4F0895E89409C097FB94
S11314503EF490958095709561957F4F8F4F9F4F87
S11314609923A9F0F92F96E9BB279395F6958795CB
S113147077956795B795F111F8CFFAF4BB0F11F48E
S113148060FF1BC06F5F7F4F8F4F9F4F16C0882335
S113149011F096E911C0772321F09EE8872F762F6B
S11314A005C0662371F096E8862F70E060E02AF0AC
S11314B09A95660F771F881FDAF7880F9695879598
S11314C097F90895990F0008550FAA0BE0E8FEEF6D
S11314D016161706E807F907C0F012161306E407F4
S11314E0F50798F0621B730B840B950B39F40A26ED
S11314F061F0232B242B252B21F408950A2609F4CB
S1131500A140A6958FEF811D811D089557FD905828
S1131510440F551F59F05F3F71F04795880F97FBB3
S1131520991F61F09F3F79F087950895121613066D
S11315301406551FF2CF4695F1DF08C0161617069C
S11315401806991FF1CF86957105610508940895D1
S1131550E894BB2766277727CB0197F908950E9463
S1131560C20A0C94330B0E94250B38F00E942C0BFA
S113157020F0952311F00C941C0B0C94220B1124D5
S11315800C94A90A0E94860A70F3959FC1F3950FE3
S113159050E0551F629FF001729FBB27F00DB11DF3
S11315A0639FAA27F00DB11DAA1F649F6627B00D83
S11315B0A11D661F829F2227B00DA11D621F739F6C
S11315C0B00DA11D621F839FA00D611D221F749F7A
S11315D03327A00D611D231F849F600D211D822FC1
S11315E0762F6A2F11249F5750409AF0F1F08823E8
S11315F04AF0EE0FFF1FBB1F661F771F881F915015
S11316005040A9F79E3F510580F00C941C0B0C949C
S1131610A90A5F3FE4F3983ED4F3869577956795DE
S1131620B795F795E7959F5FC1F7FE2B880F911D3E
S11316309695879597F9089597F99F6780E870E0E4
S113164060E008959FEF80EC089500240A94161634
S1131650170618060906089500240A94121613069C
S1131660140605060895092E0394000C11F488232A
S113167052F0BB0F40F4BF2B11F460FF04C06F5F46
S11316807F4F8F4F9F4F089597FB072E16F40094BA
S113169007D077FD09D00E949A0B07FC05D03EF4D1
S11316A0909581959F4F0895709561957F4F08950A
S11316B0A1E21A2EAA1BBB1BFD010DC0AA1FBB1F52
S11316C0EE1FFF1FA217B307E407F50720F0A21BC4
S11316D0B30BE40BF50B661F771F881F991F1A9431
S11316E069F760957095809590959B01AC01BD015B
S11316F0CF010895EE0FFF1F0590F491E02D09949A
S1131700A29FB001B39FC001A39F700D811D11243E
S1131710911DB29F700D811D1124911D08950E9489
S1131720800BA59F900DB49F900DA49F800D911DDB
S113173011240895AA1BBB1B51E107C0AA1FBB1F9C
S1131740A617B70710F0A61BB70B881F991F5A9549
S1131750A9F780959095BC01CD010895F894FFCF29
S9030000FC
