S0120000416374697669646164342E7372656355
S11300000C943B000C9458000C9458000C94580029
S11300100C9458000C9458000C9458000C945800FC
S11300200C9458000C9458000C9458000C94FF073E
S11300300C9458000C9458000C94B9070C94580074
S11300400C9458000C9458000C9439080C945800E3
S11300500C9458000C9458000C9458000C945800BC
S11300600C9458000C945800080A110A1E0A2B0A12
S1130070380A430A500A11241FBECFEFD8E0DEBF6E
S1130080CDBF11E0A0E0B1E0E8E1FBE102C00590E2
S11300900D92A033B107D9F723E0A0E3B1E001C08A
S11300A01D92AC34B207E1F70E942F090C948A0D1B
S11300B00C94000090E027E1289FF001299FF00DA7
S11300C01124ED5BFE4F26892431B8F427E1289FE3
S11300D0F001299FF00D1124ED5BFE4F858990E01E
S11300E0DF01A80FB91F6C93019664E170E00E94D0
S11300F0200D858B86898F5F868B089590E027E19C
S1130100289FF001299FF00D1124ED5BFE4F2689F5
S11301102223C9F027E1289FF001299FF00D112423
S1130120ED5BFE4F848990E0DF01A80FB91F2C918D
S1130130019664E170E00E94200D848B86898150D1
S1130140868B822F08958FEF0895909336018093C4
S11301503501089590933C0180933B010895909359
S11301603A018093390108959093380180933701BF
S1130170089520E022C0822F90E037E1389FF001FB
S1130180399FF00D1124ED5BFE4F148A158A168AEF
S1130190FC01EE0FFF1FEE0FFF1FE252FE4F108215
S11301A01182FC01E050FF4F1082880F991FFC015F
S11301B0E35CFE4F108211822F5F2330E0F208953A
S11301C080E020C0282F30E0F901EE0FFF1FEE0F72
S11301D0FF1FE252FE4F9081992399F0F901EE0F2F
S11301E0FF1FEE0FFF1FE252FE4F9181992349F04A
S11301F0220F331F220F331FF901E252FE4F915099
S113020091838F5F8330F0F20895EF92FF921F93F2
S1130210CF93DF9300D0CDB7DEB710E04BC0E12E13
S1130220F12CF701EE0FFF1FEE0FFF1FE252FE4FFE
S11302308081882351F0F701EE0FFF1FEE0FFF1F9F
S1130240E252FE4F9181911134C0882391F1F7015C
S1130250EE0FFF1FEE0FFF1FE252FE4F818181114F
S113026028C0F701EE0FFF1FEE0FFF1FE252FE4FF3
S113027082818130F1F4E0913B01F0913C013097AF
S113028069F00E2C01C0880F0A94EAF789831A8258
S113029042E0BE016F5F7F4F82E50995F701EE0FE3
S11302A0FF1FEE0FFF1FE252FE4F82E082838DE7B5
S11302B081831F5F133008F4B2CF0F900F90DF914A
S11302C0CF911F91FF90EF900895BF92CF92DF924C
S11302D0EF92FF920F931F93CF93DF9300D0CDB78C
S11302E0DEB78B01E42E813609F4F7C1A8F4833517
S11302F009F4F9C040F4813509F469C008F088C0F4
S1130300803529F1B6C28F3509F4AAC108F0ADC110
S11303108E3509F464C1ADC2853609F42DC230F4BA
S1130320833609F4F1C108F4E1C113C2873609F434
S113033079C208F470C2803F09F09BC2DB018C9142
S11303408D3009F096C281E08093330192C2B3E00C
S1130350B41798F5E0E0F1E0DB0111968C91119768
S1130360808312968C911297818313968C91828349
S113037020E01FC0822F90E037E1389FF001399FC1
S1130380F00D1124ED5BFE4F148A158A168AFC01C8
S1130390EE0FFF1FEE0FFF1FE252FE4F108211827D
S11303A012821382880F991FFC01E35CFE4F1082B6
S11303B02F5F2330F8F21092DD01E0913501F091C6
S11303C03601309709F455C281E0099552C2FB0108
S11303D080818D3099F481E08093DD0180E00CC050
S11303E0E82FF0E0EE0FFF1FEE0FFF1FE252FE4F6B
S11303F01082118212828F5F833090F3E091350175
S1130400F0913601309709F434C280E0099531C285
S1130410DB018C918F3F09F02CC260C0E12EF12CDE
S1130420F701EE0FFF1FEE0FFF1FE252FE4F828116
S1130430823009F051C0F701EE0FFF1FEE0FFF1FCE
S1130440E252FE4F128210821182F701EE0FFF1F5B
S1130450E35CFE4F8081882309F40BC2F701EE0FA1
S1130460FF1FE35CFE4F1082812F0E947E008F3FAE
S113047009F4FFC1282F082E000C330BE216F306F3
S113048011F5E0913B01F0913C01309779F081E066
S113049090E002C0880F991F1A95E2F789838A8336
S11304A042E0BE016F5F7F4F82E50995F701EE0FD1
S11304B0FF1FEE0FFF1FE252FE4F81E080839DE796
S11304C091838283D6C1123008F0D3C1682F81E0B2
S11304D0810F0E945A00CDC11F5F01C010E013308C
S11304E008F49CCFC6C1FB0180818D3019F41092B1
S11304F0DD01BFC18A3009F0BCC182E08093DD0117
S1130500B8C18F2D90E0F801E80FF91FB080019673
S1130510F801E80FF91F8081813009F05DC0CB2C10
S1130520D12CF601EE0FFF1FEE0FFF1FE252FE4F1C
S11305308281811149C08B2D0E947E008F3F49F436
S1130540F601EE0FFF1FE35CFE4F81E08083B18272
S113055043C0282F082E000C330BC216D30659F5BE
S113056080913101909132010196909332018093F0
S11305703101E0913B01F0913C01309779F081E049
S113058090E002C0880F991FBA94E2F789838A83A6
S113059042E0BE016F5F7F4F82E50995F601EE0FE1
S11305A0FF1FEE0FFF1FE252FE4F81E080839DE7A5
S11305B09183828311C0F1E0FB1570F0682F81E014
S11305C08B0D0E945A0008C0F601EE0FFF1FE35C7A
S11305D0FE4F81E08083B182F394F39401C0F12C47
S11305E0FE1408F48ECF45C1D8019C91E62FF0E0AB
S11305F0E050FF4F8081981331C080E00E945A0080
S113060080913D01882309F434C18091E001811176
S113061030C110923D010E947E00811117C0E0910B
S11306203B01F0913C01309749F081E089838A8352
S113063042E0BE016F5F7F4F82E50995EEEDF1E088
S113064081E080839DE79183828313C18F3F09F406
S113065010C1682F81E00E945A000BC16F5F01C076
S113066060E0633008F4C0CF04C1442321F0FB01EF
S1130670808180938901F3E0FE1508F0FAC0D80167
S113068011966C910F2EFFE1EF2EF1E0FF2EF02D6D
S113069070E080E090E00E94FC0BF70160837183BE
S11306A082839383D80112966C9170E080E090E08D
S11306B00E94FC0BF7016483758386839783D801BA
S11306C013966C9170E080E090E00E94FC0BF701BF
S11306D06087718782879387CCC0E0913901F0915C
S11306E03A01309709F4C5C00995C3C0DB018C9168
S11306F080933401E0913701F0913801309709F487
S1130700B8C08C910995B5C0B6E0B41708F0B1C073
S1130710FB018081E7E0F1E08083DB0111968C919D
S11307201197818312968C911297828313968C91E0
S11307301397838314968C911497809306011596CE
S11307408C9115978093050116968C9180930401E2
S113075090C0B2E0B41708F08CC0FB018081809394
S11307600C01818190E0982F88272281822B90931D
S11307700E0180930D017DC0F7E0F41708F079C0F5
S1130780DB018C9190E0A0E0B0E0BA2FA92F982F64
S11307908827FB012181822B80931B0190931C01EC
S11307A0A0931D01B0931E01828190E0A0E0B0E00F
S11307B0BA2FA92F982F88272381822B8093170182
S11307C090931801A0931901B0931A01848190E0C9
S11307D0A0E0B0E0BA2FA92F982F88272581822B7B
S11307E08093130190931401A0931501B093160103
S11307F0868190E0A0E0B0E0BA2FA92F982F882737
S11308002781822B80930F0190931001A0931101F3
S1130810B09312012EC0442361F1DB018C918093CB
S11308200B0127C0B7E0B41720F5FB01808180934A
S11308308D018181809330018281809303018381C2
S113084090E090938C0180938B01848190E090934D
S11308508F0180938E01E0E0F1E0DB0115968C912D
S11308601597808316968C911697818317968C9191
S113087082830F900F90DF91CF911F910F91FF9082
S1130880EF90DF90CF90BF900895CF93DF931F92A6
S1130890CDB7DEB7898341E0BE016F5F7F4F8FE53F
S11308A00E9465010F90DF91CF910895DC011196AC
S11308B07C936E9313965C934E93129715963C9388
S11308C02E93149716961C92169717961D921D92A6
S11308D01D921C921A971B961D921D921D921C929A
S11308E01E976115710519F0FB0180E009950895C3
S11308F0CF92DF92EF92FF92CF93DF93FC01268198
S113090021110EC06A017B01EC010190F081E02D00
S113091081E00995CF82D886E986FA8681E08E83C4
S1130920DF91CF91FF90EF90DF90CF9008958F9259
S11309309F92AF92BF92CF92DF92EF92FF92CF93AA
S1130940DF93EC016A017B018F819885A985BA85C3
S11309504A015B01881A990AAA0ABB0A8E8181306E
S113096039F008F482C08230C9F08330D9F178C0FC
S113097080910C0190E0A0E0B0E088169906AA06E8
S1130980BB0608F472C0E881F98180E00995CF8242
S1130990D886E986FA8682E08E8367C0EA81FB8185
S11309A00995882339F0CB86DC86ED86FE8683E0C4
S11309B08E835BC080910D0190910E01A0E0B0E0A8
S11309C088169906AA06BB0608F44FC01E82EC815D
S11309D0FD81309709F449C060E070E080E89FEB46
S11309E0099543C0EA81FB81099581111BC08B8560
S11309F09C85AD85BE85A7019601281B390B4A0B42
S1130A005B0BCA01B9010E94FC0B28E23EE74CE8EB
S1130A105CE30E948B0C1E82EC81FD81309729F1EE
S1130A20099523C08B859C85AD85BE85C81AD90AD6
S1130A30EA0AFB0A80910D0190910E01A0E0B0E05A
S1130A40C816D906EA06FB0680F01E82EC81FD81F9
S1130A50309759F060E070E080E89FEB099505C09D
S1130A60E881F98180E009951E82DF91CF91FF90A2
S1130A70EF90DF90CF90BF90AF909F908F900895AC
S1130A80CF93DF93EC01798368835B834A833D834F
S1130A902C836115710519F0FB01099501C080E0F3
S1130AA08E83DF91CF910895CF93DF93DC01ED9195
S1130AB0FC913097E9F0EC0109959E81891302C0FD
S1130AC01F8216C09F819F5F9F8320910B01921705
S1130AD078F01F828E83882331F0EA81FB8130977E
S1130AE039F0099505C0EC81FD81309709F009952D
S1130AF0DF91CF910895882321F08BB180688BB961
S1130B0008958BB18F778BB90895882321F085B12F
S1130B10806185B9089585B18F7E85B9089588234C
S1130B2021F085B1886085B9089585B1877F85B93D
S1130B30089589B182958695877091E0892781709F
S1130B40089589B18695869591E0892781700895E5
S1130B5089B186958695869591E089278170089557
S1130B6089B182958F7091E08927817008958823D7
S1130B7021F085B1826085B9089585B18D7F85B9ED
S1130B80089593B1892F847092FD81E0089588239C
S1130B9021F088B18E7F88B9089588B1816088B9C1
S1130BA008958093910181E0809392010895CF92FA
S1130BB0DF92EF92FF920F931F93CF93DF931F92D5
S1130BC0CDB7DEB780919201882309F43FC0C0906D
S1130BD00102D0900202E0900302F090040280919E
S1130BE0930190919401A0919501B0919601C81A36
S1130BF0D90AEA0AFB0AA0919101B0E020E432E4A8
S1130C004FE050E00E945C0DA70196010E94340D54
S1130C1089012F3F310519F010F00FEF10E0B801F2
S1130C2080E090E00E94FC0B60932B0170932C01F8
S1130C3080932D0190932E01098341E0BE016F5FE3
S1130C407F4F82E60E94800A109292018BB18F7BC3
S1130C508BB9E1E3F2E083E08083118242E0BF01DB
S1130C608EE50E94800A0F90DF91CF911F910F9122
S1130C70FF90EF90DF90CF900895E1E3F2E01082CF
S1130C80118242E0BF018EE50E94800A0895E1E3EB
S1130C90F2E081E08083118242E0BF018EE50E9490
S1130CA0800A0895E1E3F2E082E08083118242E069
S1130CB0BF018EE50E94800A0895E1E3F2E010820C
S1130CC081E0818342E0BF018EE50E94800A42E018
S1130CD061E372E08EE50E9465010895E1E3F2E0CC
S1130CE081E08083818342E0BF018EE50E94800A17
S1130CF042E061E372E08EE50E9465010895E1E35C
S1130D00F2E082E0808381E0818342E0BF018EE5EE
S1130D100E94800A42E061E372E08EE50E94650170
S1130D200895BF92CF92DF92EF92FF920F931F9399
S1130D30CF93DF936B017C0110928A010E94CD0B4B
S1130D406093310241E061E372E08FE50E94800A22
S1130D5041E061E372E081E60E94800AB0900801FC
S1130D600B2D10E0C0910601D0E0B8016C1B7D0B87
S1130D70072E000C880B990B0E94FE0B9B01AC0103
S1130D80C701B6010E94860C8823A4F0B8016C0F39
S1130D907D1F072E000C880B990B0E94FE0B9B01F4
S1130DA0AC01C701B6010E94C80B18161CF0B09222
S1130DB08A0150C0B09009010B2D10E0B8016C1BE2
S1130DC07D0B072E000C880B990B0E94FE0B9B01D8
S1130DD0AC01C701B6010E94860C8823A4F0BE01B1
S1130DE0600F711F072E000C880B990B0E94FE0BDD
S1130DF09B01AC01C701B6010E94C80B18161CF078
S1130E00B0928A0127C0B0900A010B2D10E0B801FE
S1130E106C1B7D0B072E000C880B990B0E94FE0B9C
S1130E209B01AC01C701B6010E94860C882394F093
S1130E30C00FD11FBE01DD0F880B990B0E94FE0B62
S1130E409B01AC01C701B6010E94C80B181614F02F
S1130E50B0928A0180918A0181110E944504DF9138
S1130E60CF911F910F91FF90EF90DF90CF90BF90A3
S1130E700895409101025091020260910302709121
S1130E80040282EF91E00E94780408958091920117
S1130E90882381F08091010290910202A0910302C3
S1130EA0B09104028093930190939401A0939501CF
S1130EB0B09396018BB180648BB9E1E3F2E083E0F7
S1130EC0808381E0818342E0BF018EE50E94800A35
S1130ED00E9439070895FF920F931F93CF93DF93D6
S1130EE0C82F8B01D42F8235E1F5FB01F08081817D
S1130EF08823B1F0F0FE05C060E087E192E00E9433
S1130F00380BF1FE05C060E083E392E00E94380BE9
S1130F10F2FE21C060E085E092E00E94380B1BC025
S1130F20F0FE05C06AE587E192E00E94380BF1FE0D
S1130F3005C06AE583E392E00E94380BF2FE05C027
S1130F406AE585E092E00E94380B86E980938D0182
S1130F5081E0809390014D2FB8018C2F0E94800A6C
S1130F6002C00E94800ADF91CF911F910F91FF90E0
S1130F7008951F920F920FB60F9211242F933F934F
S1130F804F935F936F937F938F939F93AF93BF938D
S1130F90EF93FF9348EC50E060E070E087E192E06B
S1130FA00E94730B48EC50E060E070E083E392E051
S1130FB00E94730B48EC50E060E070E085E092E042
S1130FC00E94730B809188018F5F809388018A301F
S1130FD028F0109288018EB381608EBBFF91EF914F
S1130FE0BF91AF919F918F917F916F915F914F913D
S1130FF03F912F910F900FBE0F901F9018951F9245
S11310000F920FB60F9211242F933F934F935F9338
S11310106F937F938F939F93AF93BF93EF93FF93BC
S11310204091010250910202609103027091040206
S1131030405D5F4F6F4F7F4F409301025093020218
S1131040609303027093040282EF91E00E9497047C
S1131050FF91EF91BF91AF919F918F917F916F918C
S11310605F914F913F912F910F900FBE0F901F9062
S113107018951F920F920FB60F9211248F939F937E
S1131080AF93BF93EF93FF93EDE3F2E0A081B181BF
S1131090828191E0980F9283A80FB11D8091C600C0
S11310A08C9392818481815089238283FF91EF9173
S11310B0BF91AF919F918F910F900FBE0F901F9092
S11310C01895CF93DF931F92CDB7DEB78EB38E7F83
S11310D08EBB8091DD01882319F0813071F010C03E
S11310E080919901815080939901811109C084E60E
S11310F08093990180E283B903C085B1806285B988
S113110081E292E00E9454058AEE91E00E94540527
S11311108FE092E00E94540589E292E00E94540517
S113112080918E0190918F01019690938F0180930D
S11311308E01843C994060F010928F0110928E01D0
S1131140198240E0BE016F5F7F4F80EF0E94800AEA
S113115080919701909198010196909398018093C2
S11311609701809190018823A1F080918D018823BB
S113117081F0815080938D0181110BC010929001F8
S11311808FEF898341E0BE016F5F7F4F82E50E944C
S113119065010E9405010E94E0000F90DF91CF914C
S11311A0089584B18A6384B984B18B7F84B98AB188
S11311B080688AB98AB180648AB984B1816084B94B
S11311C08AB1837C8AB98BB18C638BB987B1816016
S11311D087B988B1816088B9089582E084BD91E3BC
S11311E097BD80936E0083E085BD089510928000C2
S11311F08AE0809381008FE590E09093890080934A
S1131200880082E080936F0008951092C50087E6FD
S11312108093C40086E08093C20088E98093C10073
S11312200895CF93DF9300D000D0CDB7DEB78DE023
S11312308983E7E0F1E081818A8382818B838381E2
S11312408C8344E0BE016F5F7F4F80E50E9465019F
S11312500F900F900F900F90DF91CF910895F89415
S11312600E94D1090E94B90081E08093330185E690
S113127091E00E94E60989E397E00E94AF008BE6C3
S113128097E00E94AA0081ED95E00E94B40087ECEB
S113129095E00E94A5000E9405090E94D1080E94C1
S11312A0ED080E94F6080E94110921E936E041EC9C
S11312B055E067EB75E082EF91E00E94560427ED5C
S11312C035E046E457E069E975E081E292E00E9486
S11312D040052DE336E04DE556E061EA75E08AEE1F
S11312E091E00E94400527E436E04EE656E068EAC5
S11312F075E08FE092E00E94400522E536E04FE77A
S113130056E060EB75E089E292E00E9440056BE7ED
S113131075E087E192E00E941E0B65E875E083E3C7
S113132092E00E941E0B6FE875E085E092E00E9457
S11313301E0B6AE587E192E00E94380B6AE583E3BD
S113134092E00E94380B6AE585E092E00E94380B37
S1131350789484E680939901F0990E946108EDE302
S1131360F2E09381828198130E94EB09E6ECF2E0AB
S113137092818381981781F38091C00085FFECCF1F
S1131380A081B181838191E0980F9383A80FB11D4F
S11313908C918093C60093818481815089238383B7
S11313A0DBCFEDE3F2E08CEC92E09183808380E884
S11313B08483138212821682E6ECF2E026E432E0A1
S11313C031832083848313821282089590939B0136
S11313D080939A0108958DC0EDE3F2E0A081B1817C
S11313E0838191E0980F9383A80FB11D2C91938171
S11313F08481815089238383E6818E2F90E0873016
S1131400910508F076C0FC01EC5CFF4F0C94560D7E
S1131410253509F06EC0EDE3F2E081E08683208794
S113142068C02E3441F4EDE3F2E082E086838085E7
S1131430282720875EC0109243025BC0253441F404
S1131440EDE3F2E083E0868380852827208751C07E
S1131450109243024EC0223541F4EDE3F2E084E001
S1131460868380852827208744C01092430241C088
S1131470EDE3F2E0278380852827208785E08683B3
S113148010929C0136C02A3341F4EDE3F2E08085EA
S11314902827208786E086832CC01092430229C027
S11314A0EDE3F2E09085922790878781823050F0B7
S11314B0E0919C0131E03E0F30939C01F0E0E35653
S11314C0FE4F2083815080934402811112C09111F8
S11314D00EC0E0919A01F0919B01309741F0409148
S11314E09C0141506EE971E080919D010995109233
S11314F04302EDE3F2E09381828198136DCF089566
S1131500CF93DF9352E0540FE6ECF2E0A081B18177
S1131510928121E0290F2283A90FB11D95E59C93A7
S113152022819481915092239283A081B1819281EE
S113153021E0290F2283A90FB11D9EE49C932281EF
S11315409481915092239283A081B181928121E070
S1131550290F2283A90FB11D95E49C9322819481C4
S1131560915092239283A081B181928121E0290F2D
S11315702283A90FB11D92E59C93328124812150CD
S113158023232283A081B181928121E0290F228328
S1131590A90FB11D5C93328124812150232322831E
S11315A0A081B181928121E0290F2283A90FB11D6D
S11315B09AE39C933281248121502323228396E34E
S11315C09527A081B181228131E0320F3283A20FAD
S11315D0B11D8C93328124812150232322838927B6
S11315E090E017C0E6ECF2E0A081B181228131E005
S11315F0320F3283A20FB11DEB01C90FD11D288117
S11316002C93328124812150232322832881822711
S11316109F5F941738F3E6ECF2E0A081B1819281E8
S113162021E0290F2283A90FB11D8C93928184811B
S1131630815089238283DF91CF910895FC017183C6
S1131640608380910F0190911001A0911101B091DC
S1131650120182839383A483B58316821782108632
S113166011866115710519F0FB0180E00995089553
S1131670CF92DF92EF92FF92CF93DF93EC01653B21
S113168008F064EB8091130190911401A09115016D
S1131690B0911601C0901701D0901801E090190183
S11316A0F0901A019C01AD012C193D094E095F0906
S11316B0A62FB0E00E945C0D24EB30E040E050E047
S11316C00E94340DD701C601820F931FA41FB51FBA
S11316D08A839B83AC83BD83DF91CF91FF90EF908E
S11316E0DF90CF9008950F931F93CF93DF93DC0186
S11316F0ED91FC91309709F446C0EC018E819F81F5
S1131700A885B985480F591F6A1F7B1F4E835F83C5
S11317106887798700911B0110911C0120911D019C
S113172030911E014017510762077307E0F0401B18
S1131730510B620B730B4E835F836887798781E05B
S113174009954E815F81688579858A819B81AC8109
S1131750BD81481759076A077B07A8F0E881F9811A
S113176080E0099510C00A811B812C813D8180177E
S11317709107A207B30738F44017510762077307AC
S113178010F080E00995DF91CF911F910F9108959A
S11317900E94390C08F481E008950E94650C88F0D9
S11317A09F5798F0B92F9927B751B0F0E1F0660F21
S11317B0771F881F991F1AF0BA95C9F714C0B13062
S11317C091F00E947F0CB1E008950C947F0C672F78
S11317D0782F8827B85F39F0B93FCCF38695779591
S11317E06795B395D9F73EF490958095709561957A
S11317F07F4F8F4F9F4F0895E89409C097FB3EF4A5
S113180090958095709561957F4F8F4F9F4F992349
S1131810A9F0F92F96E9BB279395F69587957795C7
S11318206795B795F111F8CFFAF4BB0F11F460FF87
S11318301BC06F5F7F4F8F4F9F4F16C0882311F0DF
S113184096E911C0772321F09EE8872F762F05C0F3
S1131850662371F096E8862F70E060E02AF09A958E
S1131860660F771F881FDAF7880F9695879597F983
S11318700895990F0008550FAA0BE0E8FEEF16161D
S11318801706E807F907C0F012161306E407F50770
S113189098F0621B730B840B950B39F40A2661F0E4
S11318A0232B242B252B21F408950A2609F4A14087
S11318B0A6958FEF811D811D089557FD9058440F03
S11318C0551F59F05F3F71F04795880F97FB991F9B
S11318D061F09F3F79F08795089512161306140658
S11318E0551FF2CF4695F1DF08C0161617061806E5
S11318F0991FF1CF86957105610508940895E894C0
S1131900BB2766277727CB0197F908950E94390CE6
S113191008F48FEF08950E949E0C0C940F0D0E9402
S1131920010D38F00E94080D20F0952311F00C945D
S1131930F80C0C94FE0C11240C94800C0E945D0C89
S113194070F3959FC1F3950F50E0551F629FF0010E
S1131950729FBB27F00DB11D639FAA27F00DB11D27
S1131960AA1F649F6627B00DA11D661F829F2227B0
S1131970B00DA11D621F739FB00DA11D621F839F37
S1131980A00D611D221F749F3327A00D611D231F0D
S1131990849F600D211D822F762F6A2F11249F575B
S11319A050409AF0F1F088234AF0EE0FFF1FBB1F5E
S11319B0661F771F881F91505040A9F79E3F51051D
S11319C080F00C94F80C0C94800C5F3FE4F3983E88
S11319D0D4F3869577956795B795F795E7959F5FC7
S11319E0C1F7FE2B880F911D9695879597F9089559
S11319F097F99F6780E870E060E008959FEF80ECBE
S1131A00089500240A941616170618060906089560
S1131A1000240A9412161306140605060895092EC6
S1131A200394000C11F4882352F0BB0F40F4BF2B35
S1131A3011F460FF04C06F5F7F4F8F4F9F4F089575
S1131A4097FB072E16F4009407D077FD09D00E9467
S1131A50670D07FC05D03EF4909581959F4F08953E
S1131A60709561957F4F0895A1E21A2EAA1BBB1BA6
S1131A70FD010DC0AA1FBB1FEE1FFF1FA217B30756
S1131A80E407F50720F0A21BB30BE40BF50B661F6C
S1131A90771F881F991F1A9469F760957095809530
S1131AA090959B01AC01BD01CF010895EE0FFF1F7E
S1131AB00590F491E02D09940E947B0DA59F900D53
S1131AC0B49F900DA49F800D911D11240895AA1B0D
S1131AD0BB1B51E107C0AA1FBB1FA617B70710F015
S1131AE0A61BB70B881F991F5A95A9F78095909547
S1131AF0BC01CD010895A29FB001B39FC001A39F73
S1131B00700D811D1124911DB29F700D811D112432
S10B1B10911D0895F894FFCF24
S1131B180102035A7D7D0214100D0A320A3075C081
S1131B280500006009000020020000204E000000AB
S1131B3800A0410000204200007042000020410043
S9030000FC
