S0120000416374697669646164342E7372656355
S11300000C943B000C9458000C9458000C94580029
S11300100C9458000C9458000C9458000C945800FC
S11300200C9458000C9458000C9458000C947B08C1
S11300300C9458000C9458000C9435080C945800F7
S11300400C9458000C9458000C94B5080C94580067
S11300500C9458000C9458000C9458000C945800BC
S11300600C9458000C945800D20ADB0AE80AF50AEA
S1130070020B0D0B1A0B11241FBECFEFD8E0DEBF0D
S1130080CDBF11E0A0E0B1E0E0E9FDE102C00590E0
S11300900D92A233B107D9F723E0A2E3B1E001C086
S11300A01D92A535B207E1F70E94F9090C94C60E1A
S11300B00C94000090E027E1289FF001299FF00DA7
S11300C01124EC5BFE4F26892431B8F427E1289FE4
S11300D0F001299FF00D1124EC5BFE4F858990E01F
S11300E0DF01A80FB91F6C93019664E170E00E94D0
S11300F05C0E858B86898F5F868B089590E027E15F
S1130100289FF001299FF00D1124EC5BFE4F2689F6
S11301102223C9F027E1289FF001299FF00D112423
S1130120EC5BFE4F848990E0DF01A80FB91F2C918E
S1130130019664E170E00E945C0E848B8689815094
S1130140868B822F08958FEF0895909337018093C3
S11301503601089590933D0180933C010895909356
S11301603B0180933A0108959093390180933801BB
S1130170089520E022C0822F90E037E1389FF001FB
S1130180399FF00D1124EC5BFE4F148A158A168AF0
S1130190FC01EE0FFF1FEE0FFF1FE951FE4F10820F
S11301A01182FC01E050FF4F1082880F991FFC015F
S11301B0E25CFE4F108211822F5F2330E0F208953B
S11301C080E020C0282F30E0F901EE0FFF1FEE0F72
S11301D0FF1FE951FE4F9081992399F0F901EE0F29
S11301E0FF1FEE0FFF1FE951FE4F9181992349F044
S11301F0220F331F220F331FF901E951FE4F915093
S113020091838F5F8330F0F20895EF92FF921F93F2
S1130210CF93DF9300D0CDB7DEB710E04BC0E12E13
S1130220F12CF701EE0FFF1FEE0FFF1FE951FE4FF8
S11302308081882351F0F701EE0FFF1FEE0FFF1F9F
S1130240E951FE4F9181911134C0882391F1F70156
S1130250EE0FFF1FEE0FFF1FE951FE4F8181811149
S113026028C0F701EE0FFF1FEE0FFF1FE951FE4FED
S113027082818130F1F4E0913C01F0913D013097AD
S113028069F00E2C01C0880F0A94EAF789831A8258
S113029042E0BE016F5F7F4F82E50995F701EE0FE3
S11302A0FF1FEE0FFF1FE951FE4F82E082838DE7AF
S11302B081831F5F133008F4B2CF0F900F90DF914A
S11302C0CF911F91FF90EF900895BF92CF92DF924C
S11302D0EF92FF920F931F93CF93DF9300D0CDB78C
S11302E0DEB78B01E42E813609F410C2A8F48335FD
S11302F009F4F9C040F4813509F469C008F088C0F4
S1130300803529F1D0C28F3509F4AAC108F0ADC1F6
S11303108E3509F464C1C7C2853609F447C230F486
S1130320833609F40BC208F4FAC12DC2873609F4E6
S113033093C208F48AC2803F09F0B5C2DB018C91F4
S11303408D3009F0B0C281E080933501ACC2B3E0D6
S1130350B41798F5E0E0F1E0DB0111968C91119768
S1130360808312968C911297818313968C91828349
S113037020E01FC0822F90E037E1389FF001399FC1
S1130380F00D1124EC5BFE4F148A158A168AFC01C9
S1130390EE0FFF1FEE0FFF1FE951FE4F1082118277
S11303A012821382880F991FFC01E25CFE4F1082B7
S11303B02F5F2330F8F21092E601E0913601F091BC
S11303C03701309709F46FC281E009956CC2FB01D3
S11303D080818D3099F481E08093E60180E00CC047
S11303E0E82FF0E0EE0FFF1FEE0FFF1FE951FE4F65
S11303F01082118212828F5F833090F3E091360174
S1130400F0913701309709F44EC280E009954BC250
S1130410DB018C918F3F09F046C260C0E12EF12CC4
S1130420F701EE0FFF1FEE0FFF1FE951FE4F828110
S1130430823009F051C0F701EE0FFF1FEE0FFF1FCE
S1130440E951FE4F128210821182F701EE0FFF1F55
S1130450E25CFE4F8081882309F425C2F701EE0F88
S1130460FF1FE25CFE4F1082812F0E947E008F3FAF
S113047009F419C2282F082E000C330BE216F306D8
S113048011F5E0913C01F0913D01309779F081E064
S113049090E002C0880F991F1A95E2F789838A8336
S11304A042E0BE016F5F7F4F82E50995F701EE0FD1
S11304B0FF1FEE0FFF1FE951FE4F81E080839DE790
S11304C091838283F0C1123008F0EDC1682F81E07E
S11304D0810F0E945A00E7C11F5F01C010E0133072
S11304E008F49CCFE0C1FB0180818D3019F4109297
S11304F0E601D9C18A3009F0D6C182E08093E601D1
S1130500D2C18F2D90E0F801E80FF91FB080019659
S1130510F801E80FF91F8081813009F05DC0CB2C10
S1130520D12CF601EE0FFF1FEE0FFF1FE951FE4F16
S11305308281811149C08B2D0E947E008F3F49F436
S1130540F601EE0FFF1FE25CFE4F81E08083B18273
S113055043C0282F082E000C330BC216D30659F5BE
S113056080913301909134010196909334018093EA
S11305703301E0913C01F0913D01309779F081E045
S113058090E002C0880F991FBA94E2F789838A83A6
S113059042E0BE016F5F7F4F82E50995F601EE0FE1
S11305A0FF1FEE0FFF1FE951FE4F81E080839DE79F
S11305B09183828311C0F1E0FB1570F0682F81E014
S11305C08B0D0E945A0008C0F601EE0FFF1FE25C7B
S11305D0FE4F81E08083B182F394F39401C0F12C47
S11305E0FE1408F48ECF5FC1D8019C91E62FF0E091
S11305F0E050FF4F8081981331C080E00E945A0080
S113060080913E01882309F44EC18091E901811152
S11306104AC110923E010E947E00811117C0E091F0
S11306203C01F0913D01309749F081E089838A8350
S113063042E0BE016F5F7F4F82E50995E7EEF1E08E
S113064081E080839DE7918382832DC18F3F09F4EC
S11306502AC1682F81E00E945A0025C16F5F01C042
S113066060E0633008F4C0CF1EC1442321F0FB01D5
S1130670808180933101F1E0FE1528F4D8011196B0
S11306808C9180939301B4E0BE1578F5F8016281F2
S11306900F2EF0E2EF2EF1E0FF2EF02D70E080E05F
S11306A090E00E94380DD7016D937D938D939C93B8
S11306B01397F801638170E080E090E00E94380DA8
S11306C0D70114966D937D938D939C931797F8019E
S11306D0648170E080E090E00E94380DD7011896A4
S11306E06D937D938D939C931B9780913101813001
S11306F049F480919301813029F410923001809360
S11307009A01D1C081E080933001CDC0E0913A01DB
S1130710F0913B01309709F4C6C00995C4C0FB01B0
S1130720808180930601E0913801F091390130977E
S113073009F4B9C0DB018C910995B5C0B6E0B417D2
S113074008F0B1C0FB018081E8E0F1E08083DB01C7
S113075011968C911197818312968C9112978283B2
S113076013968C911397838314968C91149780938A
S1130770070115968C9115978093050116968C9117
S11307808093040190C0B2E0B41708F08CC0FB0160
S1130790808180930D01818190E0982F88272281A8
S11307A0822B90930F0180930E017DC0F7E0F41724
S11307B008F079C0DB018C9190E0A0E0B0E0BA2FA2
S11307C0A92F982F8827FB012181822B80931C015C
S11307D090931D01A0931E01B0931F01828190E0AC
S11307E0A0E0B0E0BA2FA92F982F88272381822B6D
S11307F08093180190931901A0931A01B0931B01DF
S1130800848190E0A0E0B0E0BA2FA92F982F882728
S11308102581822B8093140190931501A0931601D6
S1130820B0931701868190E0A0E0B0E0BA2FA92F21
S1130830982F88272781822B809310019093110190
S1130840A0931201B09313012EC0442361F1DB0184
S11308508C9180930C0127C0B7E0B41720F5FB01FD
S1130860808180939701818180933201828180937A
S11308700301838190E09093960180939501848194
S113088090E09093990180939801E0E0F1E0DB011E
S113089015968C911597808316968C911697818363
S11308A017968C9182830F900F90DF91CF911F91B7
S11308B00F91FF90EF90DF90CF90BF900895CF936A
S11308C0DF931F92CDB7DEB7898341E0BE016F5F2E
S11308D07F4F8FE50E9465010F90DF91CF910895BE
S11308E0DC0111967C936E9313965C934E9312974E
S11308F015963C932E93149716961C92169717965A
S11309001D921D921D921C921A971B961D921D9268
S11309101D921C921E976115710519F0FB0180E070
S113092009950895CF92DF92EF92FF92CF93DF93D0
S1130930FC01268121110EC06A017B01EC010190AA
S1130940F081E02D81E00995CF82D886E986FA8688
S113095081E08E83DF91CF91FF90EF90DF90CF9075
S113096008958F929F92AF92BF92CF92DF92EF92AF
S1130970FF92CF93DF93EC016A017B018F8198850D
S1130980A985BA854A015B01881A990AAA0ABB0A91
S11309908E81813039F008F482C08230C9F083300E
S11309A0D9F178C080910D0190E0A0E0B0E0881604
S11309B09906AA06BB0608F472C0E881F98180E0B2
S11309C00995CF82D886E986FA8682E08E8367C04D
S11309D0EA81FB810995882339F0CB86DC86ED8694
S11309E0FE8683E08E835BC080910E0190910F019F
S11309F0A0E0B0E088169906AA06BB0608F44FC02A
S1130A001E82EC81FD81309709F449C060E070E0FA
S1130A1080E89FEB099543C0EA81FB810995811128
S1130A201BC08B859C85AD85BE85A7019601281BBF
S1130A30390B4A0B5B0BCA01B9010E94380D28E23D
S1130A403EE74CE85CE30E94EF0D1E82EC81FD81E1
S1130A50309729F1099523C08B859C85AD85BE858A
S1130A60C81AD90AEA0AFB0A80910E0190910F0173
S1130A70A0E0B0E0C816D906EA06FB0680F01E82A4
S1130A80EC81FD81309759F060E070E080E89FEBE5
S1130A90099505C0E881F98180E009951E82DF91FE
S1130AA0CF91FF90EF90DF90CF90BF90AF909F9049
S1130AB08F900895CF93DF93EC01798368835B83F0
S1130AC04A833D832C836115710519F0FB01099557
S1130AD001C080E08E83DF91CF910895CF93DF939F
S1130AE0DC01ED91FC913097E9F0EC0109959E81D0
S1130AF0891302C01F8216C09F819F5F9F8320912C
S1130B000C01921778F01F828E83882331F0EA81DA
S1130B10FB81309739F0099505C0EC81FD81309750
S1130B2009F00995DF91CF910895882321F08BB1C5
S1130B3080688BB908958BB18F778BB9089588231A
S1130B4021F085B1806185B9089585B18F7E85B91D
S1130B500895882321F085B1886085B9089585B109
S1130B60877F85B9089589B182958695877091E0CC
S1130B7089278170089589B18695869591E08927A2
S1130B808170089589B186958695869591E0892727
S1130B908170089589B182958F7091E08927817061
S1130BA00895882321F085B1826085B9089585B1BF
S1130BB08D7F85B9089593B1892F847092FD81E06A
S1130BC00895882321F088B18E7F88B9089588B16B
S1130BD0816088B908958093060181E080939A0129
S1130BE00895CF92DF92EF92FF9280919A01882329
S1130BF0C9F1C0900A02D0900B02E0900C02F09070
S1130C000D0280919C0190919D01A0919E01B09153
S1130C109F01C81AD90AEA0AFB0AA0910601B0E0AA
S1130C2020E432E44FE050E00E94980EA7019601C0
S1130C300E94700E2F3F310519F010F02FEF30E0B5
S1130C40B90180E090E00E94380D60932C0170930C
S1130C502D0180932E0190932F0181E08093300128
S1130C6010929A018BB18F7B8BB9EAE3F2E083E0B7
S1130C708083118242E0BF018EE50E944A0BFF90FF
S1130C80EF90DF90CF900895EAE3F2E010821182B2
S1130C9042E0BF018EE50E944A0B0895EAE3F2E0C8
S1130CA081E08083118242E0BF018EE50E944A0BFD
S1130CB00895EAE3F2E082E08083118242E0BF011A
S1130CC08EE50E944A0B0895EAE3F2E0108281E087
S1130CD0818342E0BF018EE50E944A0B42E06AE351
S1130CE072E08EE50E9465010895EAE3F2E081E096
S1130CF08083818342E0BF018EE50E944A0B42E07B
S1130D006AE372E08EE50E9465010895EAE3F2E089
S1130D1082E0808381E0818342E0BF018EE50E940E
S1130D204A0B42E06AE372E08EE50E946501089591
S1130D30BF92CF92DF92EF92FF920F931F93CF93C4
S1130D40DF936B017C01109294010E94090D609362
S1130D503A0241E06AE372E08FE50E944A0B41E007
S1130D606AE372E081E60E944A0BB09009010B2D00
S1130D7010E0C0910701D0E0B8016C1B7D0B072E79
S1130D80000C880B990B0E943A0D9B01AC01C70122
S1130D90B6010E94EA0D8823A4F0B8016C0F7D1FF0
S1130DA0072E000C880B990B0E943A0D9B01AC0195
S1130DB0C701B6010E94920C18161CF0B09294015F
S1130DC050C0B0900A010B2D10E0B8016C1B7D0BD4
S1130DD0072E000C880B990B0E943A0D9B01AC0165
S1130DE0C701B6010E94EA0D8823A4F0BE01600F7A
S1130DF0711F072E000C880B990B0E943A0D9B0162
S1130E00AC01C701B6010E94920C18161CF0B092F6
S1130E10940127C0B0900B010B2D10E0B8016C1B9E
S1130E207D0B072E000C880B990B0E943A0D9B0139
S1130E30AC01C701B6010E94EA0D882394F0C00FEB
S1130E40D11FBE01DD0F880B990B0E943A0D9B0147
S1130E50AC01C701B6010E94920C181614F0B092AE
S1130E6094018091940181110E945F048091310169
S1130E708823F9F090919401911118C01AC0E82FB9
S1130E80F0E0E050FF4F208192130EC009C0891793
S1130E9029F0E92FF0E0E657FE4F10829F5F01C072
S1130EA090E09330A0F305C08F5F01C080E08330F1
S1130EB030F3DF91CF911F910F91FF90EF90DF906E
S1130EC0CF90BF90089540910A0250910B02609117
S1130ED00C0270910D028BEF91E00E949204089530
S1130EE0CF92DF92EF92FF921F93CF93DF93809183
S1130EF03101882309F43FC0809130018823D9F15E
S1130F00C0902C01D0902D01E0902E01F0902F0183
S1130F1020E030E0A901C701B6010E94EA0D1816CD
S1130F203CF129C0C12FD0E0FE01EE0FFF1FEE0FF0
S1130F30FF1FE05EFE4F6081718182819381A70172
S1130F4096010E94970C20E030E04AEF53E40E949F
S1130F50EF0D0E94090DFE01EE0FFF1FE357FE4F38
S1130F6071836083C657DE4F81E088831F5F01C0B1
S1130F7010E01330B8F280919A01882381F08091B7
S1130F800A0290910B02A0910C02B0910D02809381
S1130F909C0190939D01A0939E01B0939F018BB1FE
S1130FA080648BB9EAE3F2E083E0808381E08183AB
S1130FB042E0BF018EE50E944A0B0E946307DF9165
S1130FC0CF911F91FF90EF90DF90CF900895FF9203
S1130FD00F931F93CF93DF93C82F8B01D42F8235A8
S1130FE0E1F5FB01F08081818823B1F0F0FE05C0BA
S1130FF060E080E292E00E94020CF1FE05C060E035
S11310008CE392E00E94020CF2FE21C060E08EE0CC
S113101092E00E94020C1BC0F0FE05C06AE580E26B
S113102092E00E94020CF1FE05C06AE58CE392E0B6
S11310300E94020CF2FE05C06AE58EE092E00E9476
S1131040020C86E98093970181E080939B014D2FE8
S1131050B8018C2F0E944A0B02C00E944A0BDF91F8
S1131060CF911F910F91FF9008951F920F920FB689
S11310700F9211242F933F934F935F936F937F931A
S11310808F939F93AF93BF93EF93FF9348EC50E0FC
S113109060E070E080E292E00E943D0C48EC50E099
S11310A060E070E08CE392E00E943D0C48EC50E07C
S11310B060E070E08EE092E00E943D0C8091890136
S11310C08F5F809389018A3028F0109289018EB352
S11310D081608EBBFF91EF91BF91AF919F918F91F2
S11310E07F916F915F914F913F912F910F900FBE20
S11310F00F901F9018951F920F920FB60F92112404
S11311002F933F934F935F936F937F938F939F930B
S1131110AF93BF93EF93FF9340910A0250910B0258
S113112060910C0270910D02405D5F4F6F4F7F4FD5
S113113040930A0250930B0260930C0270930D02C9
S11311408BEF91E00E94B104FF91EF91BF91AF91B9
S11311509F918F917F916F915F914F913F912F91CB
S11311600F900FBE0F901F9018951F920F920FB6FD
S11311700F9211248F939F93AF93BF93EF93FF9399
S1131180E6E4F2E0A081B181828191E0980F92833C
S1131190A80FB11D8091C6008C93928184818150E7
S11311A089238283FF91EF91BF91AF919F918F919A
S11311B00F900FBE0F901F901895EF92FF921F9300
S11311C0CF93DF9300D0CDB7DEB78EB38E7F8EBBC7
S11311D08091E601882319F0813071F010C080916C
S11311E0A20181508093A201811109C084E68093F9
S11311F0A20180E283B903C085B1806285B98AE225
S113120092E00E946E0583EF91E00E946E0588E1F2
S113121092E00E946E0582E392E00E946E05809146
S11312209801909199010196909399018093980166
S1131230843C994060F010929901109298011982AF
S113124040E0BE016F5F7F4F80EF0E944A0B8091A8
S1131250A0019091A10101969093A1018093A00116
S11312608091310181113FC042C0E12EF12CF70180
S1131270E657FE4F80818823A1F1F701EE0FFF1F8F
S1131280E357FE4F80819181009759F10197F7014F
S1131290EE0FFF1FE357FE4F91838083892B09F5DF
S11312A0F701E657FE4F108281E090E0012E02C064
S11312B0880F991F0A94E2F789838A8342E0BE016A
S11312C06F5F7F4F82E50E94E707F701EE0FFF1F74
S11312D0EE0FFF1FE951FE4F81E080839DE791836C
S11312E082831F5F01C010E0133008F4BECF8091E9
S11312F09B018823A1F080919701882381F081507C
S11313008093970181110BC010929B018FEF898309
S113131041E0BE016F5F7F4F82E50E9465010E943C
S113132005010E94E0000F900F90DF91CF911F9173
S1131330FF90EF90089584B18A6384B984B18B7F60
S113134084B98AB180688AB98AB180648AB984B15F
S1131350816084B98AB1837C8AB98BB18C638BB97F
S113136087B1816087B988B1816088B9089582E0C6
S113137084BD91E397BD80936E0083E085BD08959D
S1131380109280008AE0809381008FE590E0909332
S113139089008093880082E080936F000895109202
S11313A0C50087E68093C40086E08093C20088E984
S11313B08093C1000895CF93DF9300D000D0CDB7C0
S11313C0DEB78DE08983E8E0F1E081818A83828160
S11313D08B8383818C8344E0BE016F5F7F4F80E504
S11313E00E9465010F900F900F900F90DF91CF91A5
S11313F00895F8940E949B0A0E94B90081E08093AA
S1131400350185E691E00E94B00A83E697E00E94E8
S1131410AF0087EE97E00E94AA008BEE95E00E9451
S1131420B40081EE95E00E94A5000E94CF090E94BD
S11314309B090E94B7090E94C0090E94DB0928E9A0
S113144036E04BED55E061ED75E08BEF91E00E94E5
S1131450700421EF35E040E757E063EB75E08AE282
S113146092E00E945A0524E436E044E656E06BEB31
S113147075E083EF91E00E945A052EE436E045E7DB
S113148056E062EC75E088E192E00E945A0529E595
S113149036E046E856E06AEC75E082E392E00E94AA
S11314A05A0565E975E080E292E00E94E80B6FE975
S11314B075E08CE392E00E94E80B69EA75E08EE047
S11314C092E00E94E80B6AE580E292E00E94020C3E
S11314D06AE58CE392E00E94020C6AE58EE092E0F9
S11314E00E94020C789484E68093A201F0990E94F1
S11314F0DD08E6E4F2E09381828198130E94B50A44
S1131500EFECF2E092818381981781F38091C0001F
S113151085FFECCFA081B181838191E0980F938303
S1131520A80FB11D8C918093C60093818481815052
S113153089238383DBCFE6E4F2E085ED92E09183B7
S1131540808380E88483138212821682EFECF2E0B7
S11315502FE432E03183208384831382128208953E
S11315609093A4018093A30108958DC0E6E4F2E072
S1131570A081B181838191E0980F9383A80FB11D5D
S11315802C9193818481815089238383E6818E2FDA
S113159090E08730910508F076C0FC01EC5CFF4FC9
S11315A00C94920E253509F06EC0E6E4F2E081E079
S11315B08683208768C02E3441F4E6E4F2E082E0BA
S11315C086838085282720875EC010924C025BC0EA
S11315D0253441F4E6E4F2E083E08683808528271D
S11315E0208751C010924C024EC0223541F4E6E4EB
S11315F0F2E084E0868380852827208744C0109207
S11316004C0241C0E6E4F2E0278380852827208746
S113161085E086831092A50136C02A3341F4E6E4BE
S1131620F2E080852827208786E086832CC01092EC
S11316304C0229C0E6E4F2E09085922790878781E6
S1131640823050F0E091A50131E03E0F3093A501C6
S1131650F0E0EA55FE4F2083815080934D028111C2
S113166012C091110EC0E091A301F091A401309732
S113167041F04091A501415067EA71E08091A601D3
S1131680099510924C02E6E4F2E09381828198136A
S11316906DCF0895CF93DF9352E0540FEFECF2E057
S11316A0A081B181928121E0290F2283A90FB11D6C
S11316B095E59C9322819481915092239283A081F9
S11316C0B181928121E0290F2283A90FB11D9EE4EB
S11316D09C9322819481915092239283A081B18121
S11316E0928121E0290F2283A90FB11D95E49C93D7
S11316F022819481915092239283A081B18192811D
S113170021E0290F2283A90FB11D92E59C93328118
S11317102481215023232283A081B181928121E05D
S1131720290F2283A90FB11D5C933281248121509A
S113173023232283A081B181928121E0290F228376
S1131740A90FB11D9AE39C93328124812150232354
S1131750228396E39527A081B181228131E0320F63
S11317603283A20FB11D8C93328124812150232313
S11317702283892790E017C0EFECF2E0A081B181C9
S1131780228131E0320F3283A20FB11DEB01C90F68
S1131790D11D28812C93328124812150232322833B
S11317A0288182279F5F941738F3EFECF2E0A08141
S11317B0B181928121E0290F2283A90FB11D8C935D
S11317C092818481815089238283DF91CF9108950E
S11317D0FC01718360838091100190911101A091AB
S11317E01201B091130182839383A483B58316827B
S11317F01782108611866115710519F0FB0180E0CE
S113180009950895CF92DF92EF92FF92CF93DF93E1
S1131810EC01653B08F064EB809114019091150193
S1131820A0911601B0911701C0901801D090190130
S1131830E0901A01F0901B019C01AD012C193D09A7
S11318404E095F09A62FB0E00E94980E24EB30E009
S113185040E050E00E94700ED701C601820F931F32
S1131860A41FB51F8A839B83AC83BD83DF91CF9173
S1131870FF90EF90DF90CF9008950F931F93CF9335
S1131880DF93DC01ED91FC91309709F446C0EC0143
S11318908E819F81A885B985480F591F6A1F7B1FB8
S11318A04E835F836887798700911C0110911D0125
S11318B020911E0130911F014017510762077307E1
S11318C0E0F0401B510B620B730B4E835F83688700
S11318D0798781E009954E815F81688579858A8160
S11318E09B81AC81BD81481759076A077B07A8F023
S11318F0E881F98180E0099510C00A811B812C815F
S11319003D8180179107A207B30738F440175107A8
S11319106207730710F080E00995DF91CF911F9162
S11319200F9108950E94750D08F481E008950E94B6
S1131930AB0C0C94B00D0E94A90D58F00E94A20D9E
S113194040F029F45F3F29F00C94990D51110C9447
S1131950E40D0C949F0D0E94C10D68F39923B1F31B
S1131960552391F3951B550BBB27AA2762177307C1
S1131970840738F09F5F5F4F220F331F441FAA1F55
S1131980A9F335D00E2E3AF0E0E832D09150504011
S1131990E695001CCAF72BD0FE2F29D0660F771FBF
S11319A0881FBB1F261737074807AB07B0E809F0A5
S11319B0BB0B802DBF01FF2793585F4F3AF09E3F2A
S11319C0510578F00C94990D0C94E40D5F3FE4F309
S11319D0983ED4F3869577956795B795F7959F5F6D
S11319E0C9F7880F911D9695879597F90895E1E0B9
S11319F0660F771F881FBB1F621773078407BA0718
S1131A0020F0621B730B840BBA0BEE1F88F7E09572
S1131A1008950E94C90D88F09F5798F0B92F99270F
S1131A20B751B0F0E1F0660F771F881F991F1AF0C5
S1131A30BA95C9F714C0B13091F00E94E30DB1E03A
S1131A4008950C94E30D672F782F8827B85F39F039
S1131A50B93FCCF3869577956795B395D9F73EF45E
S1131A6090958095709561957F4F8F4F9F4F089506
S1131A70E89409C097FB3EF4909580957095619524
S1131A807F4F8F4F9F4F9923A9F0F92F96E9BB27DA
S1131A909395F695879577956795B795F111F8CF56
S1131AA0FAF4BB0F11F460FF1BC06F5F7F4F8F4FC1
S1131AB09F4F16C0882311F096E911C0772321F0B7
S1131AC09EE8872F762F05C0662371F096E8862F4F
S1131AD070E060E02AF09A95660F771F881FDAF7A6
S1131AE0880F9695879597F90895990F0008550FD3
S1131AF0AA0BE0E8FEEF16161706E807F907C0F090
S1131B0012161306E407F50798F0621B730B840B97
S1131B10950B39F40A2661F0232B242B252B21F471
S1131B2008950A2609F4A140A6958FEF811D811D11
S1131B30089597F99F6780E870E060E008959FEF4B
S1131B4080EC089500240A94161617061806090650
S1131B50089500240A94121613061406050608951F
S1131B60092E0394000C11F4882352F0BB0F40F4A7
S1131B70BF2B11F460FF04C06F5F7F4F8F4F9F4FE7
S1131B80089557FD9058440F551F59F05F3F71F069
S1131B904795880F97FB991F61F09F3F79F08795D0
S1131BA00895121613061406551FF2CF4695F1DF59
S1131BB008C0161617061806991FF1CF86957105E9
S1131BC0610508940895E894BB2766277727CB011D
S1131BD097F908950E94750D08F48FEF08950E94F7
S1131BE0020E0C94B00D0E94A20D38F00E94A90DB3
S1131BF020F0952311F00C94990D0C949F0D112451
S1131C000C94E40D0E94C10D70F3959FC1F3950FE0
S1131C1050E0551F629FF001729FBB27F00DB11D6C
S1131C20639FAA27F00DB11DAA1F649F6627B00DFC
S1131C30A11D661F829F2227B00DA11D621F739FE5
S1131C40B00DA11D621F839FA00D611D221F749FF3
S1131C503327A00D611D231F849F600D211D822F3A
S1131C60762F6A2F11249F5750409AF0F1F0882361
S1131C704AF0EE0FFF1FBB1F661F771F881F91508E
S1131C805040A9F79E3F510580F00C94990D0C9497
S1131C90E40D5F3FE4F3983ED4F38695779567951A
S1131CA0B795F795E7959F5FC1F7FE2B880F911DB8
S1131CB09695879597F9089597FB072E16F4009447
S1131CC007D077FD09D00E94A30E07FC05D03EF48F
S1131CD0909581959F4F0895709561957F4F0895D4
S1131CE0A1E21A2EAA1BBB1BFD010DC0AA1FBB1F1C
S1131CF0EE1FFF1FA217B307E407F50720F0A21B8E
S1131D00B30BE40BF50B661F771F881F991F1A94FA
S1131D1069F760957095809590959B01AC01BD0124
S1131D20CF010895EE0FFF1F0590F491E02D099463
S1131D300E94B70EA59F900DB49F900DA49F800D97
S1131D40911D11240895AA1BBB1B51E107C0AA1FB2
S1131D50BB1FA617B70710F0A61BB70B881F991F48
S1131D605A95A9F780959095BC01CD010895A29F3D
S1131D70B001B39FC001A39F700D811D1124911D5B
S1131D80B29F700D811D1124911D0895F894FFCF09
S1131D900102035A7D7D0A0214100D0A320A3075BD
S1131DA0C00500006009000020020000204E000071
S1131DB0000048430000C843000016440000F041FE
S1051DC001011B
S9030000FC
