:100000000C943B000C9458000C9458000C9458002D
:100010000C9458000C9458000C9458000C94580000
:100020000C9458000C9458000C9458000C945800F0
:100030000C9458000C9458000C9471040C945800C3
:100040000C9458000C9458000C9483040C945800A1
:100050000C9458000C9458000C9458000C945800C0
:100060000C9458000C9458004C05550562056F051A
:100070007C058705940511241FBECFEFD8E0DEBFB5
:10008000CDBF11E0A0E0B1E0E4E2FDE002C00590E8
:100090000D92A230B107D9F723E0A2E0B1E001C090
:1000A0001D92AB30B207E1F70E94AB040C949006AE
:1000B0000C94000010920A0108950F931F93CF93A0
:1000C000DF93EC0190910A01983040F5FA018081AC
:1000D000322F309583238083FB018081822B8083A4
:1000E000A92FB0E0FD01EE0FFF1FEE0FFF1FEE0F77
:1000F000FF1FEA0FFB1FE55FFE4FD183C0837383B1
:100100006283558344832683108707838881AE5F8B
:10011000BE4F28232C939F5F90930A01DF91CF91CC
:100120001F910F9108950F931F93CF93DF9300E0DA
:100130002EC0C02FD0E0FE01EE0FFF1FEE0FFF1FFD
:10014000EE0FFF1FEC0FFD1FE55FFE4FA081B18199
:100150001C9186811823FE01EE5FFE4F808181276E
:10016000812389F0FE01EE0FFF1FEE0FFF1FEE0F40
:10017000FF1FEC0FFD1FE55FFE4F0780F085E02DB0
:10018000309709F00995CE5FDE4F18830F5F80919D
:100190000A01081770F2DF91CF911F910F91089516
:1001A00090E027E1289FF001299FF00D1124EF59DD
:1001B000FE4F26892431B8F427E1289FF001299FBA
:1001C000F00D1124EF59FE4F858990E0DF01A80F53
:1001D000B91F6C93019664E170E00E946206858B02
:1001E00086898F5F868B089590E027E1289FF00134
:1001F000299FF00D1124EF59FE4F26892223C9F0C3
:1002000027E1289FF001299FF00D1124EF59FE4F9F
:10021000848990E0DF01A80FB91F2C91019664E159
:1002200070E00E946206848B86898150868B822FC3
:1002300008958FEF08959093590180935801089580
:1002400020E022C0822F90E037E1389FF001399FF3
:10025000F00D1124EF59FE4F148A158A168AFC01FD
:10026000EE0FFF1FEE0FFF1FE051FE4F10821182B5
:10027000FC01EA55FE4F1082880F991FFC01E55AD8
:10028000FE4F108211822F5F2330E0F2089580E04C
:1002900020C0282F30E0F901EE0FFF1FEE0FFF1FE7
:1002A000E051FE4F9081992399F0F901EE0FFF1F65
:1002B000EE0FFF1FE051FE4F9181992349F0220F6D
:1002C000331F220F331FF901E051FE4F91509183EC
:1002D0008F5F8330F0F20895EF92FF921F93CF93D8
:1002E000DF9300D0CDB7DEB710E04BC0E12EF12C8C
:1002F000F701EE0FFF1FEE0FFF1FE051FE4F808151
:10030000882351F0F701EE0FFF1FEE0FFF1FE051A2
:10031000FE4F9181911134C0882391F1F701EE0FC6
:10032000FF1FEE0FFF1FE051FE4F8181811128C09A
:10033000F701EE0FFF1FEE0FFF1FE051FE4F82810E
:100340008130F1F4E0915801F0915901309769F052
:100350000E2C01C0880F0A94EAF789831A8242E0C2
:10036000BE016F5F7F4F82E50995F701EE0FFF1F1A
:10037000EE0FFF1FE051FE4F82E082838DE7818305
:100380001F5F133008F4B2CF0F900F90DF91CF9121
:100390001F91FF90EF900895BF92CF92DF92EF925E
:1003A000FF920F931F93CF93DF9300D0CDB7DEB7AB
:1003B000833509F4DAC0E42E8B01843540F48135AD
:1003C00009F44FC008F066C0803599F095C18F35AB
:1003D00009F44CC1803F21F08E3509F08DC141C137
:1003E000DB018C918D3009F087C181E0809357014A
:1003F00083C1B3E0B41708F07FC1E6EAF1E0DB01A6
:1004000011968C911197808312968C91129781830B
:1004100013968C91828320E01FC0822F90E037E1F9
:10042000389FF001399FF00D1124EF59FE4F148AC7
:10043000158A168AFC01EE0FFF1FEE0FFF1FE05119
:10044000FE4F1082118212821382880F991FFC01C5
:10045000E55AFE4F10822F5F2330F8F21092EF0121
:100460004BC1FB0180818D3009F046C181E0809352
:10047000EF0180E00CC0E82FF0E0EE0FFF1FEE0F61
:10048000FF1FE051FE4F1082118212828F5F833076
:1004900090F332C1DB018C918F3F09F02DC160C018
:1004A000E12EF12CF701EE0FFF1FEE0FFF1FE051C1
:1004B000FE4F8281823009F051C0F701EE0FFF1F1D
:1004C000EE0FFF1FE051FE4F128210821182F701E2
:1004D000EE0FFF1FE55AFE4F8081882309F40CC1FF
:1004E000F701EE0FFF1FE55AFE4F1082812F0E9489
:1004F000F4008F3F09F400C1282F082E000C330BA5
:10050000E216F30611F5E0915801F0915901309788
:1005100079F081E090E002C0880F991F1A95E2F708
:1005200089838A8342E0BE016F5F7F4F82E5099530
:10053000F701EE0FFF1FEE0FFF1FE051FE4F81E0AE
:1005400080839DE791838283D7C0123008F0D4C0A6
:10055000682F81E0810F0E94D000CEC01F5F01C0D4
:1005600010E0133008F49CCFC7C0FB0180818D30B0
:1005700019F41092EF01C0C08A3009F0BDC082E0CA
:100580008093EF01B9C08F2D90E0F801E80FF91FBB
:10059000B0800196F801E80FF91F8081813009F0E1
:1005A0005DC0CB2CD12CF601EE0FFF1FEE0FFF1F0D
:1005B000E051FE4F8281811149C08B2D0E94F400D1
:1005C0008F3F49F4F601EE0FFF1FE55AFE4F81E021
:1005D0008083B18243C0282F082E000C330BC21633
:1005E000D30659F58091530190915401019690934F
:1005F000540180935301E0915801F09159013097D3
:1006000079F081E090E002C0880F991FBA94E2F778
:1006100089838A8342E0BE016F5F7F4F82E509953F
:10062000F601EE0FFF1FEE0FFF1FE051FE4F81E0BE
:1006300080839DE79183828311C0F1E0FB1570F008
:10064000682F81E08B0D0E94D00008C0F601EE0FEC
:10065000FF1FE55AFE4F81E08083B182F394F3944B
:1006600001C0F12CFE1408F48ECF46C080915501D4
:10067000909156010196909356018093550160E048
:1006800039C0D8019C91E62FF0E0EA55FE4F8081F9
:1006900098132FC080E00E94D00080915B018823D6
:1006A00059F18091F201811127C010925B010E94E3
:1006B000F400811117C0E0915801F0915901309771
:1006C00049F081E089838A8342E0BE016F5F7F4FFA
:1006D00082E50995E0EFF1E081E080839DE7918379
:1006E00082830AC08F3F41F0682F81E00E94D000D2
:1006F00003C06F5F633028F20F900F90DF91CF91AE
:100700001F910F91FF90EF90DF90CF90BF900895D1
:10071000CF93DF931F92CDB7DEB7198280915A0134
:10072000882379F0E0915801F0915901309731F028
:1007300040E0BE016F5F7F4F81E5099510925A013D
:100740000FC0E0915801F0915901309731F040E02D
:10075000BE016F5F7F4F80E5099581E080935A016C
:100760000F90DF91CF910895CF93DF931F92CDB774
:10077000DEB71982E0915801F0915901309731F0BC
:1007800040E0BE016F5F7F4F83E5099510925A01EB
:100790000F90DF91CF910895CF93DF931F92CDB744
:1007A000DEB7809100018A3018F48F5F80930001DA
:1007B00080910001880F8983E0915801F0915901DF
:1007C000309731F041E0BE016F5F7F4F84E50995BE
:1007D0000F90DF91CF910895CF93DF931F92CDB704
:1007E000DEB780910001823018F0815080930001C3
:1007F00080910001880F8983E0915801F09159019F
:10080000309731F041E0BE016F5F7F4F84E509957D
:100810000F90DF91CF91089584B18F6284B98AB12E
:100820008C608AB98AB18F708AB98BB1806F8BB9AD
:10083000089514BC85B385BB8CE787BD82E08093A7
:100840006E0084E085BD08951092C50087E6809310
:10085000C40086E08093C20088E98093C1000895B7
:10086000CF93DF931F92CDB7DEB78EB38E7F8EBB53
:100870008091EF01882319F0813071F010C08091D0
:10088000AB0181508093AB01811109C084E6809354
:10089000AB0180E283B903C085B1806285B98091E4
:1008A000A9019091AA0101969093AA018093A901B0
:1008B000843C994060F01092AA011092A90119821B
:1008C00040E0BE016F5F7F4F80EF0E94C4050E9431
:1008D00093000E946C010E9447010F90DF91CF911D
:1008E00008951F920F920FB60F9211248F9387B520
:1008F000835887BD8EB381608EBB8F910F900FBEE2
:100900000F901F9018951F920F920FB60F921124FF
:100910008F939F93AF93BF93EF93FF93ECEFF1E02F
:10092000A081B181828191E0980F9283A80FB11DBF
:100930008091C6008C939281848181508923828327
:10094000FF91EF91BF91AF919F918F910F900FBE4B
:100950000F901F901895F8940E9415050E94200191
:100960008CEC91E00E942A0584EC95E00E941B012A
:100970000E9424040E940C040E9419040E945A0040
:1009800008E813E020E14AE250E06BE270E089E21F
:1009900090E00E945D0004EB13E020E24AE250E0A8
:1009A0006BE270E089E290E00E945D000CEC13E0E5
:1009B00020E44AE250E06BE270E089E290E00E94BD
:1009C0005D000CEE13E020E84AE250E06BE270E0DC
:1009D00089E290E00E945D00789484E68093AB0108
:1009E000F0990E943004ECEFF1E09381828198133A
:1009F0000E942F05E5E8F2E092818381981781F348
:100A00008091C00085FFECCFA081B181838191E00E
:100A1000980F9383A80FB11D8C918093C60093818A
:100A20008481815089238383DBCFECEFF1E08BE875
:100A300092E09183808380E88483138212821682FD
:100A4000E5E8F2E025E032E03183208384831382FD
:100A5000128208959093AD018093AC0108958DC0EA
:100A6000ECEFF1E0A081B181838191E0980F938355
:100A7000A80FB11D2C919381848181508923838398
:100A8000E6818E2F90E08730910508F076C0FC015A
:100A9000EC5CFF4F0C947606253509F06EC0ECEF48
:100AA000F1E081E08683208768C02E3441F4ECEFCA
:100AB000F1E082E086838085282720875EC010923F
:100AC00002025BC0253441F4ECEFF1E083E0868361
:100AD00080852827208751C0109202024EC02235FF
:100AE00041F4ECEFF1E084E08683808528272087BD
:100AF00044C01092020241C0ECEFF1E027838085F0
:100B00002827208785E086831092AE0136C02A33DD
:100B100041F4ECEFF1E080852827208786E086838A
:100B20002CC01092020229C0ECEFF1E090859227D0
:100B300090878781823050F0E091AE0131E03E0F26
:100B40003093AE01F0E0E155FE4F20838150809359
:100B50000302811112C091110EC0E091AC01F0911D
:100B6000AD01309741F04091AE01415060EB71E032
:100B70008091AF01099510920202ECEFF1E09381B0
:100B8000828198136DCF0895CF93DF9352E0540F75
:100B9000E5E8F2E0A081B181928121E0290F228372
:100BA000A90FB11D95E59C932281948191509223C8
:100BB0009283A081B181928121E0290F2283A90F24
:100BC000B11D9EE49C932281948191509223928343
:100BD000A081B181928121E0290F2283A90FB11D4B
:100BE00095E49C9322819481915092239283A081D9
:100BF000B181928121E0290F2283A90FB11D92E5D5
:100C00009C9332812481215023232283A081B181AE
:100C1000928121E0290F2283A90FB11D5C933281BB
:100C20002481215023232283A081B181928121E05C
:100C3000290F2283A90FB11D9AE39C93328124814D
:100C400021502323228396E39527A081B18122811D
:100C500031E0320F3283A20FB11D8C933281248197
:100C6000215023232283892790E017C0E5E8F2E092
:100C7000A081B181228131E0320F3283A20FB11DF8
:100C8000EB01C90FD11D28812C9332812481215081
:100C900023232283288182279F5F941738F3E5E876
:100CA000F2E0A081B181928121E0290F2283A90F76
:100CB000B11D8C9392818481815089238283DF913D
:100CC000CF91089597FB072E16F4009407D077FD77
:100CD00009D00E947C0607FC05D03EF490958195D2
:100CE0009F4F0895709561957F4F0895EE0FFF1FF8
:100CF0000590F491E02D0994AA1BBB1B51E107C09C
:100D0000AA1FBB1FA617B70710F0A61BB70B881F9B
:100D1000991F5A95A9F780959095BC01CD0108952A
:040D2000F894FFCF75
:020D24000100CC
:00000001FF
